:0507B10025780D0A008F
:0A077700082254657374204F4B00F4
:1006BD0012070BE4FF12076B8F0F7BFF7A0779B1DF
:0C06CD001200657FE87E0312061880E72B
:10060700C2A68F807F017E00120618D2A77F057EC3
:0106170000E2
:10061800D3EF9400EE9400400F7DC77C01DCFEDD33
:08062800FAEF1F70EB1E80E8E1
:0106300022A7
:0A078D00C2A7C2A5120607C2A722E8
:0A079700C2A7D2A5120607C2A722CE
:1006D9007F3812078D7F0C12078D7F0612078D7FD9
:0906E9000112078D7F8002078DCC
:04072000D290D29110
:0E072400E4FFFE0FBF00010EEF640A4E70F5F9
:0107320022A4
:0B078200120720C290120724C291222F
:0C075300C290D291120724D29002072419
:0C075F00C290D291120724C291D29022C5
:0607AB00120720C291229A
:0E074500120720309004C291C322C291D32229
:02067D00AD07C7
:10067F00E4FCED30E703D38001C39290ED25E0FD5C
:0E068F00D291120724C2910CBC08E702074565
:10069D00E4FDD290FCD291120724ED25E0FD3090BF
:0F06AD0003430501C2911207240CBC08E8AF05F6
:0106BC00221B
:1006F200AB05AA071207827FD012067DAF0212064F
:090702007DAF0312067D020753CE
:02065800AB07EE
:10065A001207827FD012067DAF0312067D1207822F
:10066A007FD112067D12069DAD071207AB12075302
:02067A00AF05CA
:01067C00225B
:10070B00758920758DFD758BFDD28E759850D2AC89
:05071B00D2AFD29922CB
:0207B600000041
:0F073300C43333335480420ED2A0120742C2A007
:0307420000002292
:0A07A100D2A2120742C2A3020742CF
:1005CF00EF70027F02BF01027F03D2A0120742C267
:1005DF00A0EF5402FEC31324FF92A2120742D2A02F
:1005EF00120742C2A0EF1392A2120742D2A0120723
:0805FF0042C2A0D2A202074291
:10056F00E4F50C780D7C00FD7BFF7A0779B6FE7FF2
:10057F000212042FE4FE12073BFFA2A1E433420D47
:10058F00E50D25E0F50D12073B0FBF07EDA2A1E426
:10059F0033420DA2A1E433FE120733E4FFE50EC38D
:1005AF0013F50EA2A1E433FE1207330FBF07EED2ED
:0F05BF00A3C2A0D2A1E50DB50E03AF0E227F009F
:0105CE00220A
:0B076B00E4FE1207A11205CF12056F7B
:010776002260
:030000000204E314
:0C04E300787FE4F6D8FD75812902052A17
:10035F00E709F608DFFA8046E709F208DFFA803E80
:10036F0088828C83E709F0A3DFFA8032E309F6086D
:10037F00DFFA8078E309F208DFFA807088828C83D5
:10038F00E309F0A3DFFA806489828A83E0A3F60889
:10039F00DFFA805889828A83E0A3F208DFFA804C63
:1003AF0080D280FA80C680D4806980F2803380103A
:1003BF0080A680EA809A80A880DA80E280CA8033A3
:1003CF0089828A83ECFAE493A3C8C582C8CCC5831B
:1003DF00CCF0A3C8C582C8CCC583CCDFE9DEE780EB
:1003EF000D89828A83E493A3F608DFF9ECFAA9F06A
:1003FF00EDFB2289828A83ECFAE0A3C8C582C8CCC0
:10040F00C583CCF0A3C8C582C8CCC583CCDFEADED8
:10041F00E880DB89828A83E493A3F208DFF980CC3A
:10042F0088F0EF60010E4E60C388F0ED2402B40433
:10043F000050B9F582EB2402B4040050AF232345DA
:06044F0082239003AF734D
:10000300E51B240FF8E6051B22780C300702780F56
:10001300E475F0011204AD0204552000EB7F2ED2EB
:10002300008018EF540F2490D43440D4FF30040BD5
:10003300EF24BFB41A0050032461FFE51C600215CE
:100043001C051FE51F7002051E30070D780CE475B3
:10005300F0011204ADEF02049B0206317403D207D0
:100063008003E4C207F51B8B0C8A0D890EE4F51C93
:10007300F51EF51FE51C60077F2012003E80F57515
:100083001DFFC201C200C202C203C205C206C208EA
:1000930012000CFF700D3007057F0012004FAF1FD9
:1000A300AE1E22B4255FC2D5C20412000CFF24D0B9
:1000B300B40A00501A75F00A781C30D50508B6FF4B
:1000C3000106C6A426F620D5047002D20380D924E3
:1000D300CFB41A00EF5004C2E5D20402024FD2019A
:1000E30080C6D20080C0D20280BCD2D580BAD205ED
:1000F30080B47F2012003E2002077401B51C00402B
:10010300F1120003FF12003E020077D208D20680EC
:1001130095120003FB120003FA120003F94A4B7015
:100123000679207A037BFF20022EE51C602A7E00DD
:100133008E8275830012046E60060EEE651D70F0EC
:10014300C2D5EBC0E0EAC0E0E9C0E0EE120296D00F
:10015300E0F9D0E0FAD0E0FB120455FF60AAEBC04F
:10016300E0EAC0E0E9C0E012003ED0E02401F9D0AB
:10017300E03400FAD0E0FBE51D0460DCD51DD98036
:10018300877BFF7A027992D202809C791080027970
:1001930008C206C2088008D2D5790A8004790AC247
:1001A300D5E51D047002F51DE4FAFDFEFF12000300
:1001B300FC7B08200113120003FD7B1030000A12A0
:1001C3000003FE120003FF7B20EC3382D592D5504F
:1001D30013C3E43000069FFFE49EFEE42001039D69
:1001E300FDE49CFCE4CBF8C201EC700CCFCECDCC8B
:1001F300E824F8F870F38017C3EF33FFEE33FEED16
:1002030033FDEC33FCEB33FB994002FB0FD8E9EBF6
:10021300300105F8D0E0C448B201C0E00AEC4D4E0D
:100223004F78207B0070C2EAB51D0040BCC0E012CD
:100233000298D0F0D0E0200104C4C0E0C4B201C0F1
:10024300F0120027D0F0D5F0EB0200771204BD01C5
:100253001453018E5800E54C00E14201924F019A7C
:0F02630044019A4900FA4301A0550184460184E1
:100272004501844703405000E92D00ED2E01102B6B
:1002820000F123010E2003292A00A94800000108D9
:100292003F3F3F00790AA2D5200314300509B91067
:1002A200020404B9080104A2D52006025001042068
:1002B20002689202B51C005034C0E07F203003195E
:1002C2007F30A20272067205500F1202EFC202C202
:1002D20006C205C2087F30800F300503E9C0E01274
:1002E200003E300503D0E0F9D0E0B51CCC30051754
:1002F2007F30B9100C12003E7F583004077F78809F
:1003020003B9080312003E3002057F2D02003E7F32
:10031200202008F87F2B2006F322920280CF286E3D
:10032200756C6C2900D2011200033001F8C2017809
:100332001C30D50108F60200A92D5043495812007D
:10034200032403B405004001E490033B9312002F01
:0D035200743A12002FD203751C0402018EB4
:1004EF000206BDE493A3F8E493A34003F68001F260
:1004FF0008DFF48029E493A3F85407240CC8C3330E
:10050F00C4540F4420C8834004F456800146F6DFDC
:10051F00E4800B0102040810204080900777E47EEE
:10052F00019360BCA3FF543F30E509541FFEE493D1
:10053F00A360010ECF54C025E060A840B8E493A398
:10054F00FAE493A3F8E493A3C8C582C8CAC583CAC3
:10055F00F0A3C8C582C8CAC583CADFE9DEE780BE7B
:010781000077
:10045500BB010689828A83E0225002E722BBFE02A5
:09046500E32289828A83E49322D8
:10046E00BB010CE58229F582E5833AF583E0225043
:10047E0006E92582F8E622BBFE06E92582F8E2228D
:0D048E00E58229F582E5833AF583E49322A7
:10049B00BB010689828A83F0225002F722BBFE0140
:0204AB00F3223A
:1004AD00FAE6FB0808E6F925F0F618E6CA3AF62250
:1004BD00D083D082F8E4937012740193700DA3A3CE
:1004CD0093F8740193F5828883E4737402936860E2
:0604DD00EFA3A3A380DFE2
:10063100EFB40A07740D12063C740A309811A89998
:10064100B8130CC2983098FDA899C298B811F63029
:0706510099FDC299F5992201
:00000001FF
