:0A03A400080854657374204F4B00E5
:0B0399001202EC1202D712028280FB5D
:100313007580FFC2A5D2A6D2A7AF80C2A7EF20E700
:01032300F6E3
:0103240022B6
:10033700AE07120313C2A5C2A68E80D2A7C2A722F8
:10034700AE07120313D2A5C2A68E80D2A7C2A722D8
:1002EC007F381203377F0C1203377F061203377FD8
:0402FC0001020337C1
:0503CA007F0102033772
:080357007F8312035F0D7FC3D9
:08035F00120337AF050203474A
:100282007D331203577FE87E031202A01203CA7D58
:0E029200351203577FE87E031202A00203CA52
:04030000D290D29134
:0E030400E4FFFE0FBF00010EEF640A4E70F51D
:0103120022C8
:0B03AF00120300C290120304C291224E
:0C037500C290D291120304D29002030443
:0C038100C290D291120304C291D29022CB
:0603C400120300C29122A9
:0E036700120300309004C291C322C291D3222F
:02024200AD0706
:10024400E4FCED30E703D38001C39290ED25E0FD9B
:0E025400D291120304C2910CBC08E7020367AA
:10026200E4FDD290FCD291120304ED25E0FD309022
:0F02720003430501C2911203040CBC08E8AF0559
:01028100225A
:1002BE00AB05AA071203AF7FD0120242AF021202A1
:0902CE0042AF0312024202037563
:02021D00AB072D
:10021F001203AF7FD0120242AF031202421203AF9A
:10022F007FD1120242120262AD071203C41203758C
:02023F00AF0509
:01024100229A
:1002D700758920758DFD758BFDD28E759850D2ACC2
:0502E700D2AFD2992204
:0203D200000029
:0F032500C433333354804216D2A0120334C2A023
:03033400000022A4
:0A03BA00D2A2120334C2A3020334DE
:1001E500EF70027F02BF01027F03D2A0120334C267
:1001F500A0EF5402FEC31324FF92A2120334D2A02F
:10020500120334C2A0EF1392A2120334D2A0120338
:0802150034C2A0D2A20203349E
:10018500E4F51478157C00FD7BFF7A0379D2FE7FB8
:10019500021200D3E4FE12032DFFA2A1E43342159F
:1001A500E51525E0F51512032D0FBF07EDA2A1E416
:1001B500334215A2A1E433FE120325E4FFE516C37D
:1001C50013F516A2A1E433FE1203250FBF07EED2E5
:0F01D500A3C2A0D2A1E515B51603AF16227F0075
:0101E40022F8
:0B038D00E4FE1203BA1201E512018524
:010398002242
:0303CF00DFFE222C
:1002A000D3EF9400EE940040147D6E7C00ED1D7041
:0D02B000011CED4C70F7EF1F70E61E80E39F
:0102BD00221E
:030000000200F902
:0C00F900787FE4F6D8FD75811602014006
:10000300E709F608DFFA8046E709F208DFFA803EDF
:1000130088828C83E709F0A3DFFA8032E309F608CC
:10002300DFFA8078E309F208DFFA807088828C8334
:10003300E309F0A3DFFA806489828A83E0A3F608E8
:10004300DFFA805889828A83E0A3F208DFFA804CC2
:1000530080D280FA80C680D4806980F28033801099
:1000630080A680EA809A80A880DA80E280CA803302
:1000730089828A83ECFAE493A3C8C582C8CCC5837A
:10008300CCF0A3C8C582C8CCC583CCDFE9DEE7804A
:100093000D89828A83E493A3F608DFF9ECFAA9F0C9
:1000A300EDFB2289828A83ECFAE0A3C8C582C8CC1F
:1000B300C583CCF0A3C8C582C8CCC583CCDFEADE38
:1000C300E880DB89828A83E493A3F208DFF980CC9A
:1000D30088F0EF60010E4E60C388F0ED2402B40493
:1000E3000050B9F582EB2402B4040050AF2323453A
:0600F3008223900053730C
:10010500020399E493A3F8E493A34003F68001F274
:1001150008DFF48029E493A3F85407240CC8C333FB
:10012500C4540F4420C8834004F456800146F6DFCA
:10013500E4800B01020408102040809003A4E47EB3
:10014500019360BCA3FF543F30E509541FFEE493BF
:10015500A360010ECF54C025E060A840B8E493A386
:10016500FAE493A3F8E493A3C8C582C8CAC583CAB1
:10017500F0A3C8C582C8CAC583CADFE9DEE780BE69
:0103AE00004E
:00000001FF
