:10090E0020202020202020202020202020202000F9
:0A094E00082B54657374204F4B0012
:10014800E4F508F509F50AF50B1208B01208D712FC
:1001580009A712089BE4FDFF12086B7D307F01128E
:10016800086B7D127F0212086B7D037F0312086BF8
:100178007D017F0412086B7D017F0512086B7D17D6
:100188007F0612086B2096377F027E0012084D20EA
:10019800962D7BFF7A09790E751900751A10E4FD02
:1001A800FC7F01FE1206807BFF7A09790E75190023
:1001B800751A10E4FDFC7F02FE12068012039812E5
:1001C80005AD851E13AB1EAD27AF26120479E536A3
:1001D800453560B1E4F535F5362096367F02FE12D6
:1001E800084D20962D7BFF7A09790E751900751A2E
:1001F80010E4FDFC7F01FE1206807BFF7A09790E70
:10020800751900751A10E4FDFC7F02FE12068012B3
:100218000398E50B450A70047F0180027F00750A88
:10022800008F0BE50B450A600612000E02018D12C5
:1002380009B11209908F0FE50F75F00A842430FD7B
:100248007F80120946E50F75F00A84E5F02430FD39
:100258007F811209467D427F821209467D507F8345
:0D0268001209467D4D7F8412094602018D6A
:1008EA007580FFC2A5D2A6D2A7AF80C2A7EF20E724
:0108FA00F607
:0108FB0022DA
:10091E00AE071208EAC2A5C2A68E80D2A7C2A7222F
:10092E00AE071208EAD2A5C2A68E80D2A7C2A7220F
:1008B0007F3812091E7F0C12091E7F0612091E7F47
:0408C0000102091E0A
:0509B1007F0102091E98
:08093E007F831209460D7FC3FF
:0809460012091EAF0502092E83
:0A0680008C148D158B168A1789184B
:10068A00751D80EF64024E70067440251DF51DE449
:10069A00F51BF51CC3E51C951AE5196480F8E51BE2
:1006AA006480985024E51D251C2515FFAB16AA1752
:1006BA00A918851C82851B8312036BFD1209460546
:0906CA001CE51C70CF051B80CB60
:0106D3002204
:10082F007D3312093E7FE87E0312084D1209B17D18
:0E083F003512093E7FE87E0312084D0209B112
:0408C400D290D2916B
:0E08C800E4FFFE0FBF00010EEF640A4E70F554
:0108D60022FF
:0B099C001208C4C2901208C8C29122C9
:0C097800C290D2911208C8D2900208C8A8
:0C098400C290D2911208C8C291D29022F9
:060003001208C4C29122A4
:0E095D001208C4309004C291C322C291D3226A
:0207EF00AD0754
:1007F100E4FCED30E703D38001C39290ED25E0FDE9
:0E080100D2911208C8C2910CBC08E702095D32
:10080F00E4FDD290FCD2911208C8ED25E0FD3090A6
:0F081F0003430501C2911208C80CBC08E8AF05DD
:01082E0022A7
:10086B00AB05AA0712099C7FD01207EFAF02120744
:09087B00EFAF031207EF02097848
:0207CA00AB077B
:1007CC0012099C7FD01207EFAF031207EF12099C9E
:1007DC007FD11207EF12080FAD0712000312097830
:0207EC00AF0557
:0107EE0022E8
:040958000235000064
:1008D700438920758DFD758BFDD28E759850D2ACEE
:0308E700D2AF226B
:10089B00758901758A67758CFCD28CD2A9D2AFE4AD
:0508AB00F533F53422D5
:03000B0002079C4D
:10079C00C0E0C0D075D000C006758A67758CFCE5CA
:1007AC00341534AE33700215334E700B753303753C
:0E07BC0034E8F535753601D006D0D0D0E032E5
:020009000000F5
:0F08FC00C433333354804212D2A012090BC2A06E
:03090B00000022C7
:0A09A700D2A212090BC2A302090B31
:10076400EF70027F02BF01027F03D2A012090BC205
:10077400A0EF5402FEC31324FF92A212090BD2A0CD
:1007840012090BC2A0EF1392A212090BD2A01209F4
:080794000BC2A0D2A202090B66
:10062000E4F51078117C00FD7BFF7A007909FE7FEC
:1006300002120345E4FE120904FFA2A1E4334211B1
:10064000E51125E0F5111209040FBF07EDA2A1E4A1
:10065000334211A2A1E433FE1208FCE4FFE512C309
:1006600013F512A2A1E433FE1208FC0FBF07EED26D
:0F067000A3C2A0D2A1E511B51203AF12227F00E1
:01067F002258
:0B099000E4FE1209A712076412062003
:01099B002239
:0309B600DFFE223F
:10084D00D3EF9400EE940040147D6E7C00ED1D708E
:0D085D00011CED4C70F7EF1F70E61E80E3EC
:01086A00226B
:1006D40053657474696E67204D656E75004C2F4DBB
:1006E4003A4F707420523A537572650053657474AE
:1006F400696E6720446174650053657474696E673C
:10070400202552480053657474696E672042504D29
:0D0714000053657474696E67204B504800F7
:10000E007F061207CAEF5470C4540F75F00AA4FE8F
:10001E00EF540F2EF51375F00A842430FD7F8012F5
:10002E000946E51375F00A84E5F02430FD7F811250
:10003E0009467F051207CAEF5470C4540F75F00AB3
:10004E00A4FEEF540F2EF51475F00A842430FD7FB4
:10005E0082120946E51475F00A84E5F02430FD7F1E
:10006E00831209467F041207CAEF5470C4540F75E9
:10007E00F00AA4FEEF540F2EF51575F00A84243005
:10008E00FD7F84120946E51575F00A84E5F02430EB
:10009E00FD7F851209467F021207CAEF5470C454C1
:1000AE000F75F00AA4FEEF540F2EF51275F00A84A8
:1000BE002430FD7F87120946E51275F00A84E5F0BB
:1000CE002430FD7F881209467D3A7F891209467FCA
:1000DE00011207CAEF5470C4540F75F00AA4FEEF54
:1000EE00540F2EF51175F00A842430FD7F8A120903
:1000FE0046E51175F00A84E5F02430FD7F8B120978
:10010E00467D3A7F8C120946E4FF1207CAEF5470FF
:10011E00C4540F75F00AA4FEEF540F2EF51075F0AF
:10012E000A842430FD7F8D120946E51075F00A848D
:0A013E00E5F02430FD7F8E02094633
:100479008F108D118B12E51075F00A842430FD7FE1
:10048900C0120946E51075F00A84E5F02430FD7FB5
:10049900C11209467D2E7FC2120946E51175F00A7F
:1004A900842430FD7FC3120946E51175F00A84E5FD
:1004B900F02430FD7FC41209467D257FC512094607
:1004C9007D527FC61209467D487FC7120946E5124B
:1004D90075F00A842430FD7FC9120946E51275F0CA
:1004E9000A84E5F02430FD7FCA1209467D2E7FCBB0
:1004F900120946E51375F00A842430FD7FCC1209F0
:1005090046E51375F00A84E5F02430FD7FCD120924
:08051900467D437FCE02094636
:10039800E4F510F5112095120511E511700205100C
:1003A800640545107004F510F511209417E5111532
:1003B8001170021510C3E510648094805006751002
:1003C80000751104209624E51070CAE51114601018
:1003D80014600F14600E14600D240470B80209B183
:1003E8008004800280001209B180AAE51070A6E599
:1003F80011146018146026146034146042240470C8
:10040800941209B17BFF7A0679D480091209B17B6D
:10041800FF7A0679F0751900751A0C80311209B146
:100428007BFF7A0679FD751900751A0B8020120971
:10043800B17BFF7A077909751900751A0B800F12BD
:1004480009B17BFF7A077915751900751A0B7D01BB
:100458007C007F017E001206807BFF7A0679E175B9
:100468001900751A0EE4FDFC7F02FE1206800203D5
:010478009DE6
:10088400D3EF9400EE9400400DE4FD0DBD1BFCEF8E
:060894001F70ED1E80EA5A
:01089A00223B
:0C096B00151015101510151015101510A2
:01097700225D
:10072100E4FF75220220A407AE220522EE70F61224
:10073100096B12096B12096BE4F52530A4037525C9
:100741000175220230A407AE220522EE70F6E522E1
:100751006401600EE52A25E0F52AE525422A0FBF4E
:0207610008C0CE
:010763002273
:1005AD00C2A47FB47E00120884D2A412096B120972
:1005BD006B12096B12096BD2A420A456752202206E
:1005CD00A407AF220522EF70F675220230A407AF03
:1005DD00220522EF70F6120721852A2812072185A0
:1005ED002A29120721852A20120721852A2112077F
:1005FD0021852A24D2A4E520252125282529F52584
:10060D00B5240F85282685292785201E85211F8540
:03061D0024232271
:03000000020521D5
:0C052100787FE4F6D8FD7581360205688D
:10027500E709F608DFFA8046E709F208DFFA803E6B
:1002850088828C83E709F0A3DFFA8032E309F60858
:10029500DFFA8078E309F208DFFA807088828C83C0
:1002A500E309F0A3DFFA806489828A83E0A3F60874
:1002B500DFFA805889828A83E0A3F208DFFA804C4E
:1002C50080D280FA80C680D4806980F28033801025
:1002D50080A680EA809A80A880DA80E280CA80338E
:1002E50089828A83ECFAE493A3C8C582C8CCC58306
:1002F500CCF0A3C8C582C8CCC583CCDFE9DEE780D6
:100305000D89828A83E493A3F608DFF9ECFAA9F054
:10031500EDFB2289828A83ECFAE0A3C8C582C8CCAA
:10032500C583CCF0A3C8C582C8CCC583CCDFEADEC3
:10033500E880DB89828A83E493A3F208DFF980CC25
:1003450088F0EF60010E4E60C388F0ED2402B4041E
:100355000050B9F582EB2402B4040050AF232345C5
:0603650082239002C57323
:10036B00BB010CE58229F582E5833AF583E0225047
:10037B0006E92582F8E622BBFE06E92582F8E22291
:0D038B00E58229F582E5833AF583E49322AB
:10052D00020148E493A3F8E493A34003F68001F29B
:10053D0008DFF48029E493A3F85407240CC8C333CF
:10054D00C4540F4420C8834004F456800146F6DF9E
:10055D00E4800B010204081020408090094EE47ED7
:10056D00019360BCA3FF543F30E509541FFEE49393
:10057D00A360010ECF54C025E060A840B8E493A35A
:10058D00FAE493A3F8E493A3C8C582C8CAC583CA85
:10059D00F0A3C8C582C8CAC583CADFE9DEE780BE3D
:01095C00009A
:00000001FF
