:1019BE0025302E316642504D00252E31666B6D2F2F
:1019CE00680072683A256325632074683A2563259A
:1019DE00630D0A00686561727420726174653A2540
:1019EE00302E31662053504545443A25302E31660F
:0519FE006B6D2F680075
:101AFE00080854657374204F4B000410428C00008C
:0A1B0E00041642200000021400003B
:101A8B00E4F522F523F524F525121C81121C5712BF
:101A9B001D79121C6C121D83E51F451E6008E4F5B1
:101AAB001EF51F12144B2094EF7F647E00121C094D
:0B1ABB002094E51200061210B380DD3D
:1010B30012182D85674AAB66AD6FAF6E12165BE4EF
:1010C300FF121D62AC07E4120323E4FBFA79A07854
:1010D30040120106E4FBFA797F784312020F8F4630
:1010E3008E458D448C43754AFF754B19754CBEABC9
:1010F30046AA45A944A843E4FFFE7DA07C40120014
:1011030011E4FBFA79C878421201068F508E4F8D95
:101113004E8C4D7B007A00792A120CA07B007A005A
:10112300792A756100756207E4FDFCFFFE12196AF6
:101133007F907E01121C09E51F451E700302122ACF
:10114300E4F51EF51F754AFF754B19754CC7AC1AAC
:10115300AD1BEC12031E7466FBFAF978401201060C
:101163008F508E4F8D4E8C4D7B007A00792A120C56
:10117300A07B007A00792A7561007562077D087C7F
:1011830000E4FFFE12196A754AFF754B19754CD0BE
:10119300E56E75F00A842430F54DE56E75F00A842A
:1011A300E5F02430F54EE56675F00A842430F54FFA
:1011B300E56675F00A84E5F02430F5507B007A008B
:1011C300792A120CA07B007A00792A121CBB754A7B
:1011D300FF754B19754CE2AB46AA45A944A843E4F5
:1011E300FFFE7DA07C40120011E4FBFA79C878422F
:1011F3001201068F508E4F8D4E8C4DAC1AAD1BECE9
:1012030012031E7466FBFAF978401201068F548E9E
:10121300538D528C517B007A00792A120CA07B00EB
:101223007A00792A121CBB2094107F647E00121C62
:10123300092094061200060212E8D3E56E9578E5BC
:10124300776480F874809840030212D6AB46AA45AF
:10125300A944A843E4FFFE7DA07C40120011E4FBF7
:10126300FA79C87842120106C004C005C006C00757
:10127300AC75AD76EC12031EA804A905AA06AB074C
:10128300D007D006D005D0041202AC4046D3E566A1
:10129300957AE5796480F87480985037AC1AAD1B61
:1012A300EC12031E7466FBFAF97840120106C004BF
:1012B300C005C006C007AC73AD74EC12031EA804CE
:1012C300A905AA06AB07D007D006D005D0041202A1
:1012D300AC5006C293C2928004D293D292E4F51A20
:0812E300F51B0210B3020760C5
:101CCE007580FFC2A5D2A6D2A7AF80C2A7EF20E72C
:011CDE00F60F
:011CDF0022E2
:101CF200AE07121CCEC2A5C2A68E80D2A7C2A72250
:101D0200AE07121CCED2A5C2A68E80D2A7C2A7222F
:101C81007F38121CF27F0C121CF27F06121CF27FAD
:041C910001021CF23E
:050006007F01021CF265
:081D12007F83121D1A0D7FC32F
:081D1A00121CF2AF05021D02CC
:0A196A008C5C8D5D8B5E8A5F8960E6
:10197400756580EF64024E700674402565F565E474
:10198400F563F564C3E5649562E5616480F8E56335
:101994006480985024E5652564255DFFAB5EAA5FED
:1019A400A960856482856383120652FD121D1A059F
:0919B40064E56470CF056380CB8B
:0119BD002207
:101BEB007D33121D127FE87E03121C091200067D45
:0E1BFB0035121D127FE87E03121C090200063F
:041C9500D290D29186
:0E1C9900E4FFFE0FBF00010EEF640A4E70F56F
:011CA700221A
:0B1D6E00121C95C290121C99C2912219
:0C1D4A00C290D291121C99D290021C99F8
:0C1D5600C290D291121C99C291D290222E
:061D8A00121C95C291221B
:0E1D2200121C95309004C291C322C291D322AC
:021BAB00AD0784
:101BAD00E4FCED30E703D38001C39290ED25E0FD19
:0E1BBD00D291121C99C2910CBC08E7021D22A5
:101BCB00E4FDD290FCD291121C99ED25E0FD3090F2
:0F1BDB0003430501C291121C990CBC08E8AF0529
:011BEA0022D8
:101C2700AB05AA07121D6E7FD0121BABAF02121BAA
:091C3700ABAF03121BAB021D4A06
:021B8600AB07AB
:101B8800121D6E7FD0121BABAF03121BAB121D6E62
:101B98007FD1121BAB121BCBAD07121D8A121D4A37
:021BA800AF0587
:011BAA002218
:081B1800021E0000021A000089
:101C5700759850438920758DFD858D8BD28ED2AFB7
:051C6700C2ACD299227D
:101CA800E4FE8F99209909EEC394FF50030E80F447
:021CB800C299CF
:011CBA002207
:101CBB00120639FF600C121CA8740129F9E43AFAD8
:031CCB0080EE2286
:101C6C00438901758A67758CFCD28CD2A9D2AFE4FA
:051C7C00F51CF51D221E
:03000B00021B31A4
:101B3100C0E0C0D075D000C006758A67758CFCE521
:101B41001D151DAE1C7002151C4E700B751C037506
:0E1B51001DE8F51E751F01D006D0D0D0E03281
:071D8300D288D2A8D2AF22E2
:03000300021D30AB
:0D1D3000C0E0051BE51B7002051AD0E03273
:021D970000004A
:0F1CE000C433333354804249D2A0121CEFC2A048
:031CEF00000022D0
:0A1D7900D2A2121CEFC2A3021CEF5D
:101AC600EF70027F02BF01027F03D2A0121CEFC299
:101AD600A0EF5402FEC31324FF92A2121CEFD2A061
:101AE600121CEFC2A0EF1392A2121CEFD2A0121C7E
:081AF600EFC2A0D2A2021CEF16
:10190A00E4F54778487C00FD7BFF7A1D7997FE7FD6
:10191A0002120613E4FE121CE8FFA2A1E4334248B5
:10192A00E54825E0F548121CE80FBF07EDA2A1E43F
:10193A00334248A2A1E433FE121CE0E4FFE549C3A6
:10194A0013F549A2A1E433FE121CE00FBF07EED241
:0F195A00A3C2A0D2A1E548B54903AF49227F003F
:01196900225B
:0B1D6200E4FE121D79121AC612190AC5
:011D6D002253
:031D9400DFFE224D
:101C0900D3EF9400EE940040147D6E7C00ED1D70BE
:0D1C1900011CED4C70F7EF1F70E61E80E31C
:011C2600229B
:1018A90043757272656E742054696D650053657471
:1018B90074696E672074696D650053657474696E27
:1018C90067204D656E75004C3A4F707420523A533B
:1018D90075726500536574205370656564005365BE
:1018E900742048656172742052617465005365748F
:1018F9002052482554480052483A0054483A0000BA
:0119090000DD
:101B20000273003C027500500277003C0279001EEF
:10144B007BFF7A1879A975610075620C7D017C00B0
:10145B007F017E0012196A7F06121B86EF5470C43F
:10146B00540F75F00AA4FEEF540F2EF52D75F00AEC
:10147B00842430FD7FC0121D1AE52D75F00A84E51A
:10148B00F02430FD7FC1121D1A7F05121B86EF540D
:10149B0070C4540F75F00AA4FEEF540F2EF52E7581
:1014AB00F00A842430FD7FC2121D1AE52E75F00A56
:1014BB0084E5F02430FD7FC3121D1A7F04121B86B6
:1014CB00EF5470C4540F75F00AA4FEEF540F2EF5B1
:1014DB002F75F00A842430FD7FC4121D1AE52F7579
:1014EB00F00A84E5F02430FD7FC5121D1A7F02122D
:1014FB001B86EF5470C4540F75F00AA4FEEF540F03
:10150B002EF52C75F00A842430FD7FC7121D1AE5C9
:10151B002C75F00A84E5F02430FD7FC8121D1A7D6E
:10152B003A7FC9121D1A7F01121B86EF5470C454E7
:10153B000F75F00AA4FEEF540F2EF52B75F00A84ED
:10154B002430FD7FCA121D1AE52B75F00A84E5F0D5
:10155B002430FD7FCB121D1A7D3A7FCC121D1AE46D
:10156B00FF121B86EF5470C4540F75F00AA4FEEFE4
:10157B00540F2EF52A75F00A842430FD7FCD121DF1
:10158B001AE52A75F00A84E5F02430FD7FCE021DA2
:01159B001A35
:10165B008F478D488B49E54775F00A842430FD7F11
:10166B00C0121D1AE54775F00A84E5F02430FD7FA2
:10167B00C1121D1A7D2E7FC2121D1AE54875F00A84
:10168B00842430FD7FC3121D1AE54875F00A84E5EA
:10169B00F02430FD7FC4121D1A7D257FC5121D1A43
:1016AB007D527FC6121D1A7D487FC7121D1AE54950
:1016BB0075F00A842430FD7FC9121D1AE54975F0B7
:1016CB000A84E5F02430FD7FCA121D1A7D2E7FCBD4
:1016DB00121D1AE54A75F00A842430FD7FCC121DC9
:1016EB001AE54A75F00A84E5F02430FD7FCD121D12
:0816FB001A7D437FCE021D1A87
:1007600078547C007D007BFF7A1979087E007F0237
:10077000120613E4F556F5577BFF7A1879B6F56142
:1007800075620C7D01FC7F01FE12196A7F06121B47
:10079000868F47E5475470C4540F75F00AA4FFE5EF
:1007A00047540F2FF55075F00A842430FD7FC01296
:1007B0001D1AE55075F00A84E5F02430FD7FC11262
:1007C0001D1A7F05121B868F48E5485470C4540FCC
:1007D00075F00AA4FFE548540F2FF55175F00A840F
:1007E0002430FD7FC2121D1AE55175F00A84E5F030
:1007F0002430FD7FC3121D1A7F04121B868F49E52A
:10080000495470C4540F75F00AA4FFE549540F2FE2
:10081000F55275F00A842430FD7FC4121D1AE5528A
:1008200075F00A84E5F02430FD7FC5121D1A7F02A1
:10083000121B868F4AE54A5470C4540F75F00AA4FF
:10084000FFE54A540F2FF54F75F00A842430FD7FE1
:10085000C7121D1AE54F75F00A84E5F02430FD7FBC
:10086000C8121D1A7D3A7FC9121D1A7F01121B86FC
:100870008F4BE54B5470C4540F75F00AA4FFE54B41
:10088000540F2FF54E75F00A842430FD7FCA121DD7
:100890001AE54E75F00A84E5F02430FD7FCB121D79
:1008A0001A7D3A7FCC121D1AE4FF121B868F4C0270
:1008B0000C0F20944D7F647E00121C092094430588
:1008C00057E55770020556D39405E5566480948029
:1008D0004030AD477F06121C27AD487F05121C270C
:1008E000AD497F04121C27AD4A7F02121C27AD4B75
:1008F0007F01121C27AD4CE4FF121C2712000602D8
:100900000C41309503020AA07F647E00121C09305E
:100910009503020AA0E5566003020AA0E557146099
:100920005A1470030209B61470030209F11470031B
:10093000020A2B147003020A6524056003020AA050
:100940001547E547C394005003754763E547547066
:10095000C4540F75F00AA4FFE547540F2FF55075E6
:10096000F00A842430FD7FC0121D1AE55075F00A8C
:1009700084E5F02430FD7FC1020A9D1548E548C397
:100980009401500375480CE5485470C4540F75F039
:100990000AA4FFE548540F2FF55175F00A8424305E
:1009A000FD7FC2121D1AE55175F00A84E5F024306E
:1009B000FD7FC3020A9D1549E549C39401500375A3
:1009C000491FE5495470C4540F75F00AA4FFE54966
:1009D000540F2FF55275F00A842430FD7FC4121D88
:1009E0001AE55275F00A84E5F02430FD7FC5020A4D
:1009F0009D154AE54AC394005003754A17E54A54C9
:100A000070C4540F75F00AA4FFE54A540F2FF54F38
:100A100075F00A842430FD7FC7121D1AE54F75F06A
:100A20000A84E5F02430FD7FC88072154BE54BC386
:100A300094005003754B3BE54B5470C4540F75F054
:100A40000AA4FFE54B540F2FF54E75F00A842430AD
:100A5000FD7FCA121D1AE54E75F00A84E5F02430B8
:100A6000FD7FCB8038154CE54CC394005003754C8A
:100A70003BE54C5470C4540F75F00AA4FFE54C5488
:100A80000F2FF54D75F00A842430FD7FCD121D1A0D
:100A9000E54D75F00A84E5F02430FD7FCE121D1A75
:100AA0003096030208B27F647E00121C0930960360
:100AB0000208B2E55660030208B2E55714605A1402
:100AC0007003020B54147003020B8F147003020B9B
:100AD000C9147003020C03240560030208B2054721
:100AE000E547D394634003E4F547E5475470C454A5
:100AF0000F75F00AA4FFE547540F2FF55075F00A63
:100B0000842430FD7FC0121D1AE55075F00A84E57B
:100B1000F02430FD7FC1020C3B0548E548D3940C1E
:100B20004003754801E5485470C4540F75F00AA499
:100B3000FFE548540F2FF55175F00A842430FD7FEE
:100B4000C2121D1AE55175F00A84E5F02430FD7FCC
:100B5000C3020C3B0549E549D3941F400375490185
:100B6000E5495470C4540F75F00AA4FFE549540FC9
:100B70002FF55275F00A842430FD7FC4121D1AE54A
:100B80005275F00A84E5F02430FD7FC5020C3B0568
:100B90004AE54AD394174003E4F54AE54A5470C441
:100BA000540F75F00AA4FFE54A540F2FF55275F063
:100BB0000A842430FD7FC7121D1AE55275F00A849D
:100BC000E5F02430FD7FC88072054BE54BD3943BA4
:100BD0004003E4F54BE54B5470C4540F75F00AA480
:100BE000FFE54B540F2FF54E75F00A842430FD7F3E
:100BF000CA121D1AE54E75F00A84E5F02430FD7F17
:100C0000CB8038054CE54CD3943B4003E4F54CE5F0
:100C10004C5470C4540F75F00AA4FFE54C540F2FC8
:100C2000F54D75F00A842430FD7FCD121D1AE54D77
:100C300075F00A84E5F02430FD7FCE121D1A0208FB
:040C4000B2021703E2
:101A0300E4F57BF57C7BFF7A1879C3F56175620C8D
:101A13007D01FC7F01FE12196A7BFF7A1879D0756C
:101A2300610075620CE4FDFC7F02FE12196A7FE817
:101A33007E03121C092096030200062094F712006D
:041A43000612076020
:011A4700227C
:101703001200067BFF7A1879DD7561007562097D29
:10171300027C007F017E0012196AAE73AF747C00F5
:101723007D0A120691EF2430FD7FC5121D1AAE7398
:10173300AF747C007D0A120691ED2430FD7FC61242
:101743001D1A2095217F647E00121C09209517E540
:1017530074157470021573C3E57364809480500626
:101763007573007574632096227F647E00121C09D2
:101773002096180574E57470020573D39463E573BA
:10178300648094804005E4F573F57420948C7F6441
:0E1793007E00121C0920948212000602159C92
:10159C00120006D2947BFF7A1879E77561007562A8
:1015AC000EE4FDFC7F01FE12196AAE75AF767C006D
:1015BC007D64120691EF2430FD7FC5121D1AAE75A5
:1015CC00AF767C007D0A1206917C007D0A12069192
:1015DC00ED2430FD7FC6121D1AAE75AF767C007DF2
:1015EC000A120691ED2430FD7FC7121D1A20952199
:1015FC007F647E00121C09209517E5761576700223
:10160C001575C3E575648094805006757500757604
:10161C00B42096227F647E00121C09209618057651
:10162C00E57670020575D394B4E5756480948040BA
:10163C0005E4F575F5763094030215B67F647E00EB
:0F164C00121C093094030215B61200060212EBAD
:1012EB00E4F558F559120006D2947BFF7A1879F67B
:1012FB007561007562097D037C007F017E00121908
:10130B006A7BFF7A1979007561007562037D037C36
:10131B00007F027E0012196AAE77AF787C007D0ADF
:10132B00120691EF2430FD7FC6121D1AAE77AF78EF
:10133B007C007D0A120691ED2430FD7FC7121D1A29
:10134B007BFF7A1979047561007562037D087C0057
:10135B007F027E0012196AAE79AF7A7C007D0A1289
:10136B000691EF2430FD7FCB121D1AAE79AF7A7C3C
:10137B00007D0A120691ED2430FD7FCC121D1A2040
:10138B0095467F647E00121C0920953CE559455813
:10139B007017E578157870021577C3E5776480943C
:1013AB00805006757700757863E559640145587070
:1013BB0017E57A157A70021579C3E5796480948004
:1013CB005006757900757A632096487F647E00120B
:1013DB001C0920963EE559455870180578E578703C
:1013EB00020577D39463E577648094804005E4F538
:1013FB0077F578E559640145587018057AE57A70E8
:10140B00020579D39463E579648094804005E4F513
:10141B0079F57A30940302130C7F647E00121C0959
:10142B0030940302130C0559E55970020558D394F7
:0F143B0001E55864809480500302130C120006E0
:01144A00227F
:041D900031323500B7
:101C4000D3EF9400EE9400400DE4FD0DBD1BFCEFBE
:061C50001F70ED1E80EA8A
:011C5600226B
:0C1D3D0015471547154715471547154772
:011D49002277
:101A4800E4FF756A0220B707AE6A056AEE70F612FF
:101A58001D3D121D3D121D3DE4F56D30B703756D3A
:101A680001756A0230B707AE6A056AEE70F6E56A74
:101A78006401600EE57225E0F572E56D42720FBFF4
:021A880008C094
:011A8A002239
:10182D00C2B77FB47E00121C40D2B7121D3D121DEF
:10183D003D121D3D121D3DD2B720B75F756A0220C6
:10184D00B707AF6A056AEF70F6756A0230B707AF72
:10185D006A056AEF70F6121A48857270121A488579
:10186D007271121A48857268121A48857269121AB5
:10187D004885726CD2B7E568256925702571F56DBF
:10188D00B56C187BFF7A1D7990121CBB85706E8527
:0C189D00716F856866856967856C6B2239
:10000E0002038CE86480F8E933E83360110460F091
:10001E00ED33EC337009E8FCE9FDEAFEEBFF220458
:10002E0060DED3EB9FEA9EE99DE8C2E78CF0C2F753
:10003E0095F0400CE8CCF8E9CDF9EACEFAEBCFFB1F
:10004E0012035785D0F05804700320D5B3E804701E
:10005E00075002B2D502039692D5EC0460F7E4CCB9
:10006E00C0E0C398F8603B94186008400DD0E0FBE8
:10007E0002036EE4FBFAC9FC8028E830E406E4C90A
:10008E00FBE4CAFCE830E305E4C9CACBFCE854073C
:10009E006010F8C3E913F9EA13FAEB13FBEC13FC47
:1000AE00D8F130F52FC3E49CFCEF9BFFEE9AFEEDEA
:1000BE0099FDD0E0FBEF4E4D4C701222DB03020394
:1000CE0093EC2CFCEF33FFEE33FEED33FDED30E71A
:1000DE00EB02036EEF2BFFEE3AFEED39FDD0E0FBA7
:1000EE0050130BBB0003020396ED13FDEE13FEEF50
:0800FE0013FFEC13FC02036E7A
:10010600EC4D6011E8497017ED33EC3304600DE4F3
:10011600FCFFFEFD22E933E8330470F802038C127B
:10012600035758046009E4CC24815006285009027C
:100136000396284003020393C0E0EB4A7044B9805B
:1001460006D0E0FB020382EF4E701CBD8008EBFF79
:10015600EAFEE9FD80EBE98DF0A4FEE5F00201EF91
:10016600E9CDF9EAFEEBFFEF89F0A4FCE5F0CE89D4
:10017600F0A42EFFE435F0CD89F0A42DFEE435F091
:100186008067EF4E7005BD80D780C3EF8BF0A4ACBF
:10019600F0EE8BF0A42CFCE435F0F8EF8AF0A42CFA
:1001A600E5F038FCE433CB8DF0A42CFCE5F03BF80D
:1001B600EE8AF0A42CFCE5F038F8E433CF89F0A4FD
:1001C6002CFCE5F038CF3400CE89F0A42FFFE5F003
:1001D6003EFEE433C98DF0A42EFEE5F039CD8AF05B
:1001E600A42FFFE5F03EFEE43DFD33D0E0FB5007D3
:1001F6000BBB000F020396EC2CFCEF33FFEE33FE35
:06020600ED33FD02036E62
:10020C00020396EC5D046005E85904700302038C4C
:10021C00120357580460F6EC4860F2EC7004FDFED3
:10022C00FF22C860DB2481C85009C39860025006C5
:10023C000203939850CAF582E9294B4A7005AB82A8
:10024C0002038275F0007C1A7880C3EF9BEE9AED66
:10025C0099400DC3EF9BFFEE9AFEED99FDE842F03D
:10026C00DC23ACF0D0E0FFD0E0FED0E0FDAB822090
:10027C00E7101BEB60BAEC2CFCEF33FFEE33FEED1A
:10028C0033FD02036EE803F830E705C0F075F000AB
:10029C00EF2FFFEE33FEED33FD40B830E7C280AAFE
:1002AC0074F8CC6480CCC86480C8F582046043C305
:1002BC00EB9FF5F0EA9E42F0E99D42F0E89C45F098
:1002CC0060305018E5825FFFE582F42B5582FB50BD
:1002DC00210ABA001D09B90019088016E5825BFBDA
:1002EC00E582F42F5582FF50090EBE00050DBD00AE
:1002FC00010CC3EB9FF5F0EA9E42F0E99D42F0E859
:0D030C009C45F06007CC4820E701B3EC22CF
:1003190075F020800E75F010800575F0087D007E5F
:10032900007F003392D530D5031206C7EC33401055
:10033900EF33FFEE33FEED33FDEC33FCD5F0ED2268
:0E034900E5F0247EA2D513CC92E7CDCEFF22A4
:100C4400E55E244AF8E6055E227847300702784AD2
:100C5400E475F0011206D50206392000EB7F2ED28E
:100C6400008018EF540F2490D43440D4FF30040B88
:100C7400EF24BFB41A0050032461FFE55F6002153E
:100C84005F0562E5627002056130070D7847E4751F
:100C9400F0011206D5EF02067F021B5F7403D20730
:100CA4008003E4C207F55E8B478A488949E4F55F0F
:100CB400F561F562E55F60077F20120C7F80F575B2
:100CC40060FFC201C200C202C203C205C206C2085A
:100CD400120C4DFF700D3007057F00120C90AF62AF
:100CE400AE6122B4255FC2D5C204120C4DFF24D0DC
:100CF400B40A00501A75F00A785F30D50508B6FFBB
:100D04000106C6A426F620D5047002D20380D92495
:100D1400CFB41A00EF5004C2E5D204020F7DD20111
:100D240080C6D20080C0D20280BCD2D580BAD2059F
:100D340080B47F20120C7F2002077401B55F00404D
:100D4400F1120C44FF120C7F020CB8D208D20680B8
:100D540095120C44FB120C44FA120C44F94A4B70E1
:100D64000679747A107BFF20022EE55F602A7E00EC
:100D74008E8275830012065260060EEE656070F076
:100D8400C2D5EBC0E0EAC0E0E9C0E0EE120FDDD06E
:100D9400E0F9D0E0FAD0E0FB120639FF60AAEBC01C
:100DA400E0EAC0E0E9C0E0120C7FD0E02401F9D011
:100DB400E03400FAD0E0FBE5600460DCD560D98063
:100DC40087D20280A2120FC060F7E560700104129E
:100DD40003A1A960600DE560600914F56012106755
:100DE400EF60F3EA30E702F404C3995077EAF4259C
:100DF400600430E701E404F560800D120FC060C1A7
:100E0400EA056025601203A1EA785DF630E701E4A3
:100E1400256004D5600420050114120FDDE4C0E050
:100E2400121067785DE6601320E70714F6120C676A
:100E3400802204F6D0E014C0E07F00120C67E56065
:100E44006007120C5E1560800B300503120C5ED037
:100E5400E0020CB8D0E00480C5120FC060A0E560C9
:100E6400041203A1785DEAF6E5602005026001043E
:050E74002404120FDD53
:100E790074FF04C0E0121067120C67E560200502D8
:100E89006003120C5ED0E0B560E87F45120C717802
:100E99005DE67F2B30E7047F2DF404C0E0120C7F60
:100EA900D0E075F00A84C0F0120C68D0E0120C682A
:100EB900020CB8791080027908C206C2088008D2EB
:100EC900D5790A8004790AC2D5E560047002F56013
:100ED900E4FAFDFEFF120C44FC7B08200113120CFE
:100EE90044FD7B1030000A120C44FE120C44FF7BB7
:100EF90020EC3382D592D55013C3E43000069FFF0E
:100F0900E49EFEE42001039DFDE49CFCE4CBF8C2D1
:100F190001EC700CCFCECDCCE824F8F870F3801733
:100F2900C3EF33FFEE33FEED33FDEC33FCEB33FB64
:100F3900994002FB0FD8E9EB300105F8D0E0C4482D
:100F4900B201C0E00AEC4D4E4F78207B0070C2EA36
:100F5900B5600040BCC0E0120FDFD0F0D0E0200146
:100F690004C4C0E0C4B201C0F0120C68D0F0D5F0DE
:100F7900EB020CB81206E50D55530EBC580D264C64
:100F89000D22420EC04F0EC8440EC8490D3B430EF8
:100F9900CE550DFF460E5D450DC9471094500D2ADB
:100FA9002D0D2E2E0D512B0D32230D4F20107D2A84
:100FB9000CEA4800000D49E560B4FF0375600612AC
:100FC9000C44FC120C44FD120C44FE120C44FF7834
:100FD900560203D0790AA2D5200314300509B910A5
:100FE900020404B9080104A2D52006025001042014
:100FF90002689202B55F005034C0E07F20300319C7
:101009007F30A20272067205500F121036C202C258
:1010190006C205C2087F30800F300503E9C0E0121F
:101029000C7F300503D0E0F9D0E0B55FCC3005176F
:101039007F30B9100C120C7F7F583004077F7880FD
:1010490003B90803120C7F3002057F2D020C7F7F44
:10105900202008F87F2B2006F322920280CF7F0000
:10106900B4070050052456F8E6FF22286E756C6C0B
:101079002900D201120C443001F8C201785F30D541
:101089000108F6020CEA2D50434958120C44240376
:10109900B405004001E490108F93120C70743A1259
:0A10A9000C70D203755F04020EBC48
:10035700E9D2E7C933E833F892D5EDD2E7CD33ECEC
:0703670033FC5002B2D52265
:10036E00EC30E7100FBF000C0EBE00080DBD0004F0
:10037E000BEB6014A2D5EB13FCED92E7FD2274FF9C
:10038E00FCFDFEFF22E480F8A2D574FF13FC7D80F5
:03039E00E480EF09
:1003A100F920E72824F950037907E4F42402FB1823
:1003B100DBFDE624FB5014E9600DE4F618E604F6D3
:0F03C100B40A08E4F6D9F57401F60A22C2D5226F
:1003D000ED33EC3392D5FA602AB4FF33EDC2E77BFC
:1003E000FF60067A0379F5E4227A0379FE20D504CA
:1003F0007A0379F9224E614E002B494E46002D4971
:100400004E4600E47A08F608DAFC7B00740722E81E
:10041000C0E0ECC0E0EDC0E0EEC0E0EFC0E0EA75A7
:10042000F010A4CAABF075F04DA42BFBE435F0FC42
:10043000EA2410FAEB34C5FBEC34D9FCEDC2E7FF3B
:1004400075F056A4F42411C5F0F434C58FF0A42A35
:10045000E5F03BE43CF620E714120503D0E0FFD0C2
:10046000E0FED0E0FDD0E0FC12020F8014F4041294
:100470000503D0E0FFD0E0FED0E0FDD0E0FC1201AB
:1004800006D0E0F8E6FAEDD2E7CD33EC332482FB78
:10049000E4C3CF33CFCE33CECD33CD33DBF37B07C5
:1004A00075F00A846004F6081B0AE5F0F6088FF080
:1004B000740AA4FFACF08EF0740AA42CFEACF050C9
:1004C000010C8DF0740AA42CFDE435F0F608DBDE97
:0304D0007407228C
:1004D3003F8000004120000042C80000447A000031
:1004E300461C400047C35000497424004B189680B3
:1004F3004CBEBC205A0E1BCA6753C21C749DC5AEAA
:10050300FB60065407601C2323120531EB5438604B
:100513000912051D12052C120106ECF8EDF9EEFA8D
:10052300EFCB22EB12052C80F1543803241C9004EA
:10053300D3FE93FC0EEE93FD0EEE930ECE93FF22AD
:030000000217A143
:0C17A100787FE4F6D8FD75817C0217E823
:10054300E709F608DFFA8046E709F208DFFA803E9A
:1005530088828C83E709F0A3DFFA8032E309F60887
:10056300DFFA8078E309F208DFFA807088828C83EF
:10057300E309F0A3DFFA806489828A83E0A3F608A3
:10058300DFFA805889828A83E0A3F208DFFA804C7D
:1005930080D280FA80C680D4806980F28033801054
:1005A30080A680EA809A80A880DA80E280CA8033BD
:1005B30089828A83ECFAE493A3C8C582C8CCC58335
:1005C300CCF0A3C8C582C8CCC583CCDFE9DEE78005
:1005D3000D89828A83E493A3F608DFF9ECFAA9F084
:1005E300EDFB2289828A83ECFAE0A3C8C582C8CCDA
:1005F300C583CCF0A3C8C582C8CCC583CCDFEADEF3
:10060300E880DB89828A83E493A3F208DFF980CC54
:1006130088F0EF60010E4E60C388F0ED2402B4044D
:100623000050B9F582EB2402B4040050AF232345F4
:0606330082239005937381
:10063900BB010689828A83E0225002E722BBFE02BF
:09064900E32289828A83E49322F2
:10065200BB010CE58229F582E5833AF583E022505D
:1006620006E92582F8E622BBFE06E92582F8E222A7
:0D067200E58229F582E5833AF583E49322C1
:10067F00BB010689828A83F0225002F722BBFE015A
:02068F00F32254
:10069100C2D5EC30E709B2D5E4C39DFDE49CFCEE84
:1006A10030E715B2D5E4C39FFFE49EFE12070BC3EA
:1006B100E49DFDE49CFC800312070B30D507C3E4E5
:0606C1009FFFE49EFE22F3
:0E06C700C3E49FFFE49EFEE49DFDE49CFC2244
:1006D500FAE6FB0808E6F925F0F618E6CA3AF62226
:1006E500D083D082F8E4937012740193700DA3A3A4
:1006F50093F8740193F5828883E4737402936860B8
:06070500EFA3A3A380DFB7
:101B5F00EFB40A07740D121B6A740A309811A89912
:101B6F00B8130CC2983098FDA899C298B811F630E6
:071B7F0099FDC299F59922BE
:1017AD00021A8BE493A3F8E493A34003F68001F2AD
:1017BD0008DFF48029E493A3F85407240CC8C3333D
:1017CD00C4540F4420C8834004F456800146F6DF0C
:1017DD00E4800B0102040810204080901AFEE47E84
:1017ED00019360BCA3FF543F30E509541FFEE49301
:1017FD00A360010ECF54C025E060A840B8E493A3C8
:10180D00FAE493A3F8E493A3C8C582C8CAC583CAF2
:10181D00F0A3C8C582C8CAC583CADFE9DEE780BEAA
:011B300000B4
:10070B00BC000BBE0029EF8DF084FFADF022E4CCD2
:10071B00F875F008EF2FFFEE33FEEC33FCEE9DEC9B
:10072B00984005FCEE9DFE0FD5F0E9E4CEFD22EDE1
:10073B00F8F5F0EE8420D21CFEADF075F008EF2F2B
:10074B00FFED33FD4007985006D5F0F222C398FD1C
:05075B000FD5F0EA22B9
:00000001FF
