:10165800686561727420726174653A25302E31664E
:101668000025302E316642504D00252E31666B6DB7
:031678002F6800D8
:10167B00080854657374204F4B000410428C000013
:0A168B0004164220000002140000C3
:10143F00E4F522F523F524F52512177412174A1235
:10144F00186C12175F12187EE51F451E6008E4F531
:10145F001EF51F120FB52094EF7F647E001216FC4D
:10146F002094E50515E51570020514E51470D9E50E
:10147F001524FE600B0470D012000612110680C8EE
:05148F0012066880C395
:10110600121358855F46AB5FAD68AF6712122412A3
:1011160018558F3EAC3EE41202B6E4FBFA79A0788D
:1011260040120106E4FBFA797F784312020F8F42E0
:101136008E418D408C3F7546FF754716754858ABF6
:1011460042AA41A940A83FE4FFFE7DA07C401200D0
:1011560011E4FBFA79C878421201068F4C8E4B8D4A
:101166004A8C497B007A00792A120BA27B007A000E
:10117600792A1217AE7546FF754716754869AB4250
:10118600AA41A940A83FE4FFFE7DA07C40120011C1
:10119600E4FBFA79C878421201068F4C8E4B8D4AD1
:1011A6008C497B007A00792A120BA27B007A00799F
:1011B6002A754A00754B07E4FDFCFFFE1214947F66
:1011C600907E011216FCE51F451E7003021106E40F
:1011D600F51EF51F7546FF754716754872AC1AADB4
:1011E6001BEC1202B17466FBFAF978401201068F05
:1011F6004C8E4B8D4A8C497B007A00792A120BA2C1
:101206007B007A00792A754A00754B077D087C00B9
:0E121600E4FFFE121494E4F51AF51B02110613
:1017C1007580FFC2A5D2A6D2A7AF80C2A7EF20E73E
:0117D100F621
:0117D20022F4
:1017E500AE071217C1C2A5C2A68E80D2A7C2A72274
:1017F500AE071217C1D2A5C2A68E80D2A7C2A72254
:101774007F381217E57F0C1217E57F061217E57FF5
:04178400010217E562
:050006007F010217E577
:081805007F8312180D0D7FC353
:08180D001217E5AF050217F503
:0A1494008C458D468B478A48894934
:10149E00754E80EF64024E70067440254EF54EE494
:1014AE00F54CF54DC3E54D954BE54A6480F8E54C9A
:1014BE006480985024E54E254D2546FFAB47AA483B
:1014CE00A949854D82854C831205E5FD12180D053F
:0914DE004DE54D70CF054C80CBAB
:0114E70022E2
:1016DE007D331218057FE87E031216FC1200067D7C
:0E16EE00351218057FE87E031216FC02000676
:04178800D290D29198
:0E178C00E4FFFE0FBF00010EEF640A4E70F581
:01179A00222C
:0B186100121788C29012178CC291224F
:0C183D00C290D29112178CD29002178C2E
:0C184900C290D29112178CC291D2902252
:06188500121788C2912237
:0E181500121788309004C291C322C291D322D0
:02169E00AD0796
:1016A000E4FCED30E703D38001C39290ED25E0FD2B
:0E16B000D29112178CC2910CBC08E7021815DB
:1016BE00E4FDD290FCD29112178CED25E0FD309016
:0F16CE0003430501C29112178C0CBC08E8AF054D
:0116DD0022EA
:10171A00AB05AA071218617FD012169EAF021216E5
:09172A009EAF0312169E02183D49
:02163300AB0703
:101635001218617FD012169EAF0312169E12186102
:101645007FD112169E1216BEAD0712188512183DCF
:02165500AF05DF
:011657002270
:08169500021E0000021A000011
:10174A00759850438920758DFD858D8BD28ED2AFC9
:05175A00C2ACD299228F
:10179B00E4FE8F99209909EEC394FF50030E80F459
:0217AB00C299E1
:0117AD002219
:1017AE001205CCFF600C12179B740129F9E43AFA6A
:0317BE0080EE2298
:10175F00438901758A67758CFCD28CD2A9D2AFE40C
:05176F00F51CF51D2230
:03000B000215DEFD
:1015DE00C0E0C0D075D000C006758A67758CFCE57A
:1015EE001D151DAE1C7002151C4E700B751C03755F
:0E15FE001DE8F51E751F01D006D0D0D0E032DA
:07187E00D288D2A8D2AF22EC
:03000300021823BD
:0D182300C0E0051BE51B7002051AD0E03285
:02188E00000058
:0F17D300C433333354804245D2A01217E2C2A070
:0317E200000022E2
:0A186C00D2A21217E2C2A30217E293
:10157000EF70027F02BF01027F03D2A01217E2C206
:10158000A0EF5402FEC31324FF92A21217E2D2A0CE
:101590001217E2C2A0EF1392A21217E2D2A0121702
:0815A000E2C2A0D2A20217E290
:1013DF00E4F54378447C00FD7BFF7A18798EFE7F1D
:1013EF00021205A6E4FE1217DBFFA2A1E43342446A
:1013FF00E54425E0F5441217DB0FBF07EDA2A1E48A
:10140F00334244A2A1E433FE1217D3E4FFE545C3F0
:10141F0013F545A2A1E433FE1217D30FBF07EED287
:0F142F00A3C2A0D2A1E544B54503AF45227F007B
:01143E00228B
:0B185500E4FE12186C1215701213DF75
:011860002265
:03188B00DFFE225B
:1016FC00D3EF9400EE940040147D6E7C00ED1D70D1
:0D170C00011CED4C70F7EF1F70E61E80E32E
:0117190022AD
:1015A80043757272656E742054696D650053657475
:1015B80074696E672074696D650053657474696E2B
:1015C80067204D656E75004C3A4F707420523A533F
:0615D800757265000000C1
:100FB5007BFF7A1579A8754A00754B0C7D017C007D
:100FC5007F017E001214947F06121633EF5470C40D
:100FD500540F75F00AA4FEEF540F2EF52D75F00A87
:100FE500842430FD7FC012180DE52D75F00A84E5C7
:100FF500F02430FD7FC112180D7F05121633EF5412
:1010050070C4540F75F00AA4FEEF540F2EF52E751B
:10101500F00A842430FD7FC212180DE52E75F00A02
:1010250084E5F02430FD7FC312180D7F04121633BA
:10103500EF5470C4540F75F00AA4FEEF540F2EF54B
:101045002F75F00A842430FD7FC412180DE52F7525
:10105500F00A84E5F02430FD7FC512180D7F0212D9
:101065001633EF5470C4540F75F00AA4FEEF540FF5
:101075002EF52C75F00A842430FD7FC712180DE576
:101085002C75F00A84E5F02430FD7FC812180D7D1B
:101095003A7FC912180D7F01121633EF5470C454EC
:1010A5000F75F00AA4FEEF540F2EF52B75F00A8488
:1010B5002430FD7FCA12180DE52B75F00A84E5F082
:1010C5002430FD7FCB12180D7D3A7FCC12180DE42C
:1010D500FF121633EF5470C4540F75F00AA4FEEFD7
:1010E500540F2EF52A75F00A842430FD7FCD121891
:1010F5000DE52A75F00A84E5F02430FD7FCE02184F
:011105000DDC
:101224008F438D448B45E54375F00A842430FD7F5C
:10123400C012180DE54375F00A84E5F02430FD7FF3
:10124400C112180D7D2E7FC212180DE54475F00AE7
:10125400842430FD7FC312180DE54475F00A84E53B
:10126400F02430FD7FC412180D7D257FC512180DA2
:101274007D527FC612180D7D487FC712180DE545B3
:1012840075F00A842430FD7FC912180DE54575F008
:101294000A84E5F02430FD7FCA12180D7D2E7FCB21
:1012A40012180DE54675F00A842430FD7FCC12181F
:1012B4000DE54675F00A84E5F02430FD7FCD121863
:0812C4000D7D437FCE02180DE1
:1006680078377C007D007BFF7A1579DC7E007F027D
:100678001205A6E4F539F53A7BFF7A1579B5F54AFE
:10068800754B0C7D01FC7F01FE1214947F06121637
:10069800338F2AE52A5470C4540F75F00AA4FFE575
:1006A8002A540F2FF53375F00A842430FD7FC012C9
:1006B800180DE53375F00A84E5F02430FD7FC1128A
:1006C800180D7F051216338F2BE52B5470C4540F69
:1006D80075F00AA4FFE52B540F2FF53475F00A8442
:1006E8002430FD7FC212180DE53475F00A84E5F058
:1006F8002430FD7FC312180D7F041216338F2CE5AA
:100708002C5470C4540F75F00AA4FFE52C540F2F15
:10071800F53575F00A842430FD7FC412180DE535CF
:1007280075F00A84E5F02430FD7FC512180D7F02AC
:100738001216338F2DE52D5470C4540F75F00AA48A
:10074800FFE52D540F2FF53275F00A842430FD7F14
:10075800C712180DE53275F00A84E5F02430FD7FE4
:10076800C812180D7D3A7FC912180D7F0112163371
:100778008F2EE52E5470C4540F75F00AA4FFE52E91
:10078800540F2FF53175F00A842430FD7FCA1218F2
:100798000DE53175F00A84E5F02430FD7FCB1218A1
:1007A8000D7D3A7FCC12180DE4FF1216338F2F02FD
:1007B8000B1420944A7F647E001216FC2094400596
:1007C8003AE53A70020539D39405E5396480948096
:1007D800402DAD2A7F0612171AAD2B7F0512171A66
:1007E800AD2C7F0412171AAD2D7F0212171AAD2EE9
:1007F8007F0112171AAD2FE4FF12171A02000630F4
:1008080095030209A57F647E001216FC3095030249
:1008180009A5E53960030209A5E53A14605A147080
:10082800030208BB1470030208F6147003020930AF
:1008380014700302096A240560030209A5152AE554
:100848002AC394005003752A63E52A5470C4540FD0
:1008580075F00AA4FFE52A540F2FF53375F00A84C2
:100868002430FD7FC012180DE53375F00A84E5F0D9
:100878002430FD7FC10209A2152BE52BC39401503A
:1008880003752B0CE52B5470C4540F75F00AA4FFA4
:10089800E52B540F2FF53475F00A842430FD7FC200
:1008A80012180DE53475F00A84E5F02430FD7FC395
:1008B8000209A2152CE52CC394015003752C1FE5E1
:1008C8002C5470C4540F75F00AA4FFE52C540F2F54
:1008D800F53575F00A842430FD7FC412180DE5350E
:1008E80075F00A84E5F02430FD7FC50209A2152DB4
:1008F800E52DC394005003752D17E52D5470C4548D
:100908000F75F00AA4FFE52D540F2FF53275F00A84
:10091800842430FD7FC712180DE53275F00A84E58E
:10092800F02430FD7FC88072152EE52EC394005048
:1009380003752E3BE52E5470C4540F75F00AA4FFBE
:10094800E52E540F2FF53175F00A842430FD7FCA47
:1009580012180DE53175F00A84E5F02430FD7FCBDF
:100968008038152FE52FC394005003752F3BE52FD2
:100978005470C4540F75F00AA4FFE52F540F2FF5D7
:100988003075F00A842430FD7FCD12180DE53075DE
:10099800F00A84E5F02430FD7FCE12180D3096035E
:1009A8000207BA7F647E001216FC3096030207BA6B
:1009B800E53960030207BAE53A14605A1470030275
:1009C8000A59147003020A94147003020ACE1470B0
:1009D80003020B08240560030207BA052AE52AD397
:1009E80094634003E4F52AE52A5470C4540F75F063
:1009F8000AA4FFE52A540F2FF53375F00A84243032
:100A0800FD7FC012180DE53375F00A84E5F0243037
:100A1800FD7FC1020B40052BE52BD3940C400375D9
:100A28002B01E52B5470C4540F75F00AA4FFE52B75
:100A3800540F2FF53475F00A842430FD7FC2121844
:100A48000DE53475F00A84E5F02430FD7FC3020B10
:100A580040052CE52CD3941F4003752C01E52C543C
:100A680070C4540F75F00AA4FFE52C540F2FF53508
:100A780075F00A842430FD7FC412180DE53575F031
:100A88000A84E5F02430FD7FC5020B40052DE52DD5
:100A9800D394174003E4F52DE52D5470C4540F7515
:100AA800F00AA4FFE52D540F2FF53575F00A8424BC
:100AB80030FD7FC712180DE53575F00A84E5F0247E
:100AC80030FD7FC88072052EE52ED3943B4003E4A9
:100AD800F52EE52E5470C4540F75F00AA4FFE52EC8
:100AE800540F2FF53175F00A842430FD7FCA12188F
:100AF8000DE53175F00A84E5F02430FD7FCB8038B0
:100B0800052FE52FD3943B4003E4F52FE52F5470D0
:100B1800C4540F75F00AA4FFE52F540F2FF5307554
:100B2800F00A842430FD7FCD12180DE53075F00AE7
:0E0B380084E5F02430FD7FCE12180D0207BABE
:1014E800E4F56CF56D7BFF7A1579C2F54A754B0CFE
:1014F8007D01FC7F01FE1214947BFF7A1579CF756C
:101508004A00754B0CE4FDFC7F02FE1214947FE840
:101518007E031216FC2096030200062094F71200A0
:041528000612066839
:01152C00229C
:0818760031323300313235003C
:10173300D3EF9400EE9400400DE4FD0DBD1BFCEFD0
:061743001F70ED1E80EA9C
:01174900227D
:0C1830001543154315431543154315439C
:01183C002289
:10152D00E4FF75630220A407AE630563EE70F61247
:10153D001830121830121830E4F56630A4037566B1
:10154D000175630230A407AE630563EE70F6E563C3
:10155D006401600EE56B25E0F56BE566426B0FBF30
:02156D0008C0B4
:01156F002259
:10135800C2A47FB47E00121733D2A4121830121818
:1013680030121830121830D2A420A46A75630220F3
:10137800A407AF630563EF70F675630230A407AF87
:10138800630563EF70F612152D856B6912152D85AF
:101398006B6A12152D856B6112152D856B621215FE
:1013A8002D856B65D2A4E56125622569256AF566F8
:1013B8007BFF7A1879761217AEE566B565187BFF5C
:1013C8007A18797A1217AE856967856A6885615FC8
:0713D8008562608565642257
:10000E0002031FE86480F8E933E83360110460F0FE
:10001E00ED33EC337009E8FCE9FDEAFEEBFF220458
:10002E0060DED3EB9FEA9EE99DE8C2E78CF0C2F753
:10003E0095F0400CE8CCF8E9CDF9EACEFAEBCFFB1F
:10004E001202EA85D0F05804700320D5B3E804708C
:10005E00075002B2D502032992D5EC0460F7E4CC26
:10006E00C0E0C398F8603B94186008400DD0E0FBE8
:10007E00020301E4FBFAC9FC8028E830E406E4C977
:10008E00FBE4CAFCE830E305E4C9CACBFCE854073C
:10009E006010F8C3E913F9EA13FAEB13FBEC13FC47
:1000AE00D8F130F52FC3E49CFCEF9BFFEE9AFEEDEA
:1000BE0099FDD0E0FBEF4E4D4C701222DB03020394
:1000CE0026EC2CFCEF33FFEE33FEED33FDED30E787
:1000DE00EB020301EF2BFFEE3AFEED39FDD0E0FB14
:1000EE0050130BBB0003020329ED13FDEE13FEEFBD
:0800FE0013FFEC13FC020301E7
:10010600EC4D6011E8497017ED33EC3304600DE4F3
:10011600FCFFFEFD22E933E8330470F802031F12E8
:1001260002EA58046009E4CC2481500628500902EA
:100136000329284003020326C0E0EB4A7044B98035
:1001460006D0E0FB020315EF4E701CBD8008EBFFE6
:10015600EAFEE9FD80EBE98DF0A4FEE5F00201EF91
:10016600E9CDF9EAFEEBFFEF89F0A4FCE5F0CE89D4
:10017600F0A42EFFE435F0CD89F0A42DFEE435F091
:100186008067EF4E7005BD80D780C3EF8BF0A4ACBF
:10019600F0EE8BF0A42CFCE435F0F8EF8AF0A42CFA
:1001A600E5F038FCE433CB8DF0A42CFCE5F03BF80D
:1001B600EE8AF0A42CFCE5F038F8E433CF89F0A4FD
:1001C6002CFCE5F038CF3400CE89F0A42FFFE5F003
:1001D6003EFEE433C98DF0A42EFEE5F039CD8AF05B
:1001E600A42FFFE5F03EFEE43DFD33D0E0FB5007D3
:1001F6000BBB000F020329EC2CFCEF33FFEE33FEA2
:06020600ED33FD020301CF
:10020C00020329EC5D046005E85904700302031F26
:10021C001202EA580460F6EC4860F2EC7004FDFE41
:10022C00FF22C860DB2481C85009C39860025006C5
:10023C000203269850CAF582E9294B4A7005AB8215
:10024C0002031575F0007C1A7880C3EF9BEE9AEDD3
:10025C0099400DC3EF9BFFEE9AFEED99FDE842F03D
:10026C00DC23ACF0D0E0FFD0E0FED0E0FDAB822090
:10027C00E7101BEB60BAEC2CFCEF33FFEE33FEED1A
:10028C0033FD020301E803F830E705C0F075F00018
:10029C00EF2FFFEE33FEED33FD40B830E7C280AAFE
:1002AC0075F020800E75F010800575F0087D007ECD
:1002BC00007F003392D530D503120624EC33401066
:1002CC00EF33FFEE33FEED33FDEC33FCD5F0ED22D6
:0E02DC00E5F0247EA2D513CC92E7CDCEFF2212
:100B4600E55A2446F8E6055A2278433007027846E5
:100B5600E475F0011206320205CC2000EB7F2ED29E
:100B6600008018EF540F2490D43440D4FF30040B87
:100B7600EF24BFB41A0050032461FFE55B60021541
:100B86005B055EE55E7002055D30070D7843E47532
:100B9600F001120632EF02061202160C7403D20797
:100BA6008003E4C207F55A8B438A448945E4F55B22
:100BB600F55DF55EE55B60077F20120B8180F575BC
:100BC6005CFFC201C200C202C203C205C206C2085D
:100BD600120B4FFF700D3007057F00120B92AF5EB0
:100BE600AE5D22B4255FC2D5C204120B4FFF24D0DE
:100BF600B40A00501A75F00A785B30D50508B6FFBE
:100C06000106C6A426F620D5047002D20380D92494
:100C1600CFB41A00EF5004C2E5D204020E7FD2010F
:100C260080C6D20080C0D20280BCD2D580BAD2059E
:100C360080B47F20120B812002077401B55B00404F
:100C4600F1120B46FF120B81020BBAD208D20680B4
:100C560095120B46FB120B46FA120B46F94A4B70DD
:100C66000679767A0F7BFF20022EE55B602A7E00EE
:100C76008E827583001205E560060EEE655C70F0E7
:100C8600C2D5EBC0E0EAC0E0E9C0E0EE120EDFD06C
:100C9600E0F9D0E0FAD0E0FB1205CCFF60AAEBC089
:100CA600E0EAC0E0E9C0E0120B81D0E02401F9D00F
:100CB600E03400FAD0E0FBE55C0460DCD55CD9806A
:100CC60087D20280A2120EC260F7E55C70010412A0
:100CD6000334A95C600DE55C600914F55C120F69CC
:100CE600EF60F3EA30E702F404C3995077EAF4259B
:100CF6005C0430E701E404F55C800D120EC260C1AD
:100D0600EA055C255C120334EA7859F630E701E41B
:100D1600255C04D55C0420050114120EDFE4C0E056
:100D2600120F697859E6601320E70714F6120B696B
:100D3600802204F6D0E014C0E07F00120B69E55C67
:100D46006007120B60155C800B300503120B60D038
:100D5600E0020BBAD0E00480C5120EC260A0E55CCA
:100D6600041203347859EAF6E55C200502600104B2
:050D76002404120EDF51
:100D7B0074FF04C0E0120F69120B69E55C200502D9
:100D8B006003120B60D0E0B55CE87F45120B737803
:100D9B0059E67F2B30E7047F2DF404C0E0120B8162
:100DAB00D0E075F00A84C0F0120B6AD0E0120B6A27
:100DBB00020BBA791080027908C206C2088008D2E9
:100DCB00D5790A8004790AC2D5E55C047002F55C1A
:100DDB00E4FAFDFEFF120B46FC7B08200113120BFD
:100DEB0046FD7B1030000A120B46FE120B46FF7BB2
:100DFB0020EC3382D592D55013C3E43000069FFF0D
:100E0B00E49EFEE42001039DFDE49CFCE4CBF8C2D0
:100E1B0001EC700CCFCECDCCE824F8F870F3801732
:100E2B00C3EF33FFEE33FEED33FDEC33FCEB33FB63
:100E3B00994002FB0FD8E9EB300105F8D0E0C4482C
:100E4B00B201C0E00AEC4D4E4F78207B0070C2EA35
:100E5B00B55C0040BCC0E0120EE1D0F0D0E0200148
:100E6B0004C4C0E0C4B201C0F0120B6AD0F0D5F0DC
:100E7B00EB020BBA1206420C57530DBE580C284C02
:100E8B000C24420DC24F0DCA440DCA490C3D430DF3
:100E9B00D0550D01460D5F450CCB470F96500C2CD2
:100EAB002D0C302E0C532B0C34230C51200F7F2A7E
:100EBB000BEC4800000C4BE55CB4FF03755C0612B1
:100ECB000B46FC120B46FD120B46FE120B46FF782F
:100EDB0052020363790AA2D5200314300509B91015
:100EEB00020404B9080104A2D52006025001042013
:100EFB0002689202B55B005034C0E07F20300319CA
:100F0B007F30A20272067205500F120F38C202C256
:100F1B0006C205C2087F30800F300503E9C0E0121E
:100F2B000B81300503D0E0F9D0E0B55BCC30051771
:100F3B007F30B9100C120B817F583004077F7880FB
:100F4B0003B90803120B813002057F2D020B817F41
:100F5B00202008F87F2B2006F322920280CF7F00FF
:100F6B00B4070050052452F8E6FF22286E756C6C0E
:100F7B002900D201120B463001F8C201785B30D543
:100F8B000108F6020BEC2D50434958120B46240373
:100F9B00B405004001E4900F9193120B72743A1256
:0A0FAB000B72D203755B04020DBE49
:1002EA00E9D2E7C933E833F892D5EDD2E7CD33EC5A
:0702FA0033FC5002B2D522D3
:10030100EC30E7100FBF000C0EBE00080DBD00045D
:100311000BEB6014A2D5EB13FCED92E7FD2274FF09
:10032100FCFDFEFF22E480F8A2D574FF13FC7D8062
:03033100E480EF76
:10033400F920E72824F950037907E4F42402FB1890
:10034400DBFDE624FB5014E9600DE4F618E604F640
:0F035400B40A08E4F6D9F57401F60A22C2D522DC
:10036300ED33EC3392D5FA602AB4FF33EDC2E77B69
:10037300FF60067A037988E4227A03799120D50411
:100383007A03798C224E614E002B494E46002D494B
:100393004E4600E47A08F608DAFC7B00740722E88C
:1003A300C0E0ECC0E0EDC0E0EEC0E0EFC0E0EA7515
:1003B300F010A4CAABF075F04DA42BFBE435F0FCB0
:1003C300EA2410FAEB34C5FBEC34D9FCEDC2E7FFA9
:1003D30075F056A4F42411C5F0F434C58FF0A42AA3
:1003E300E5F03BE43CF620E714120496D0E0FFD09E
:1003F300E0FED0E0FDD0E0FC12020F8014F4041202
:100403000496D0E0FFD0E0FED0E0FDD0E0FC120186
:1004130006D0E0F8E6FAEDD2E7CD33EC332482FBE5
:10042300E4C3CF33CFCE33CECD33CD33DBF37B0732
:1004330075F00A846004F6081B0AE5F0F6088FF0ED
:10044300740AA4FFACF08EF0740AA42CFEACF05036
:10045300010C8DF0740AA42CFDE435F0F608DBDE04
:03046300740722F9
:100466003F8000004120000042C80000447A00009E
:10047600461C400047C35000497424004B18968020
:100486004CBEBC205A0E1BCA6753C21C749DC5AE17
:10049600FB60065407601C23231204C4EB54386027
:1004A600091204B01204BF120106ECF8EDF9EEFAD7
:1004B600EFCB22EB1204BF80F1543803241C9004C6
:1004C60066FE93FC0EEE93FD0EEE930ECE93FF2288
:030000000212CC1D
:0C12CC00787FE4F6D8FD75816D021313E5
:1004D600E709F608DFFA8046E709F208DFFA803E08
:1004E60088828C83E709F0A3DFFA8032E309F608F5
:1004F600DFFA8078E309F208DFFA807088828C835D
:10050600E309F0A3DFFA806489828A83E0A3F60810
:10051600DFFA805889828A83E0A3F208DFFA804CEA
:1005260080D280FA80C680D4806980F280338010C1
:1005360080A680EA809A80A880DA80E280CA80332A
:1005460089828A83ECFAE493A3C8C582C8CCC583A2
:10055600CCF0A3C8C582C8CCC583CCDFE9DEE78072
:100566000D89828A83E493A3F608DFF9ECFAA9F0F1
:10057600EDFB2289828A83ECFAE0A3C8C582C8CC47
:10058600C583CCF0A3C8C582C8CCC583CCDFEADE60
:10059600E880DB89828A83E493A3F208DFF980CCC2
:1005A60088F0EF60010E4E60C388F0ED2402B404BB
:1005B6000050B9F582EB2402B4040050AF23234562
:0605C6008223900526735C
:1005CC00BB010689828A83E0225002E722BBFE022D
:0905DC00E32289828A83E4932260
:1005E500BB010CE58229F582E5833AF583E02250CB
:1005F50006E92582F8E622BBFE06E92582F8E22215
:0D060500E58229F582E5833AF583E493222E
:10061200BB010689828A83F0225002F722BBFE01C7
:02062200F322C1
:0E062400C3E49FFFE49EFEE49DFDE49CFC22E7
:10063200FAE6FB0808E6F925F0F618E6CA3AF622C9
:10064200D083D082F8E4937012740193700DA3A347
:1006520093F8740193F5828883E47374029368605B
:06066200EFA3A3A380DF5B
:10160C00EFB40A07740D121617740A309811A899C2
:10161C00B8130CC2983098FDA899C298B811F6303E
:07162C0099FDC299F5992216
:1012D80002143FE493A3F8E493A34003F68001F2D9
:1012E80008DFF48029E493A3F85407240CC8C33317
:1012F800C4540F4420C8834004F456800146F6DFE6
:10130800E4800B010204081020408090167BE47EE4
:10131800019360BCA3FF543F30E509541FFEE493DA
:10132800A360010ECF54C025E060A840B8E493A3A1
:10133800FAE493A3F8E493A3C8C582C8CAC583CACC
:10134800F0A3C8C582C8CAC583CADFE9DEE780BE84
:01169D00004C
:00000001FF
