:0A0CF000083C54657374204F4B005C
:10074900E4F508F509F50AF50B120C62120C891289
:100759000D49120C4DE4FDFF120C1D7D307F011275
:100769000C1D7D127F02120C1D7D037F03120C1DCF
:100779007D017F04120C1D7D017F05120C1D7D2456
:100789007F06120C1D209506120D53120A651209D7
:100799003E852F13AB2FAD38AF3712080AE5474511
:1007A9004660E2E4F546F547E50B450A70047F012A
:1007B90080027F00750A008F0BE50B450A60051260
:1007C90004EC80C1120D53120D328F0FE50F75F035
:1007D9000A842430FD7F80120CE8E50F75F00A8445
:1007E900E5F02430FD7F81120CE87D427F82120CF6
:1007F900E87D507F83120CE87D4D7F84120CE880E0
:01080900846A
:100C9C007580FFC2A5D2A6D2A7AF80C2A7EF20E76E
:010CAC00F651
:010CAD002224
:100CC000AE07120C9CC2A5C2A68E80D2A7C2A722D4
:100CD000AE07120C9CD2A5C2A68E80D2A7C2A722B4
:100C62007F38120CC07F0C120CC07F06120CC07FA2
:040C720001020CC0AF
:050D53007F01020CC04D
:080CE0007F83120CE80D7FC3B5
:080CE800120CC0AF05020CD094
:0A0A11008C258D268B278A28892961
:100A1B00752E80EF64024E70067440252EF52EE481
:100A2B00F52CF52DC3E52D952BE52A6480F8E52CE7
:100A3B006480985024E52E252D2526FFAB27AA2868
:100A4B00A929852D82852C8312071CFD120CE80524
:090A5B002DE52D70CF052C80CB98
:010A6400226F
:100BE1007D33120CE07FE87E03120BFF120D537D63
:0E0BF10035120CE07FE87E03120BFF020D535D
:040C7600D290D291B5
:0E0C7A00E4FFFE0FBF00010EEF640A4E70F59E
:010C88002249
:0B0D3E00120C76C290120C7AC29122B7
:0C0D1A00C290D291120C7AD290020C7A96
:0C0D2600C290D291120C7AC291D290229D
:06000300120C76C29122EE
:0E0CFF00120C76309004C291C322C291D3220F
:020BA100AD079E
:100BA300E4FCED30E703D38001C39290ED25E0FD33
:0E0BB300D291120C7AC2910CBC08E7020CFF22
:100BC100E4FDD290FCD291120C7AED25E0FD30903B
:0F0BD10003430501C291120C7A0CBC08E8AF0572
:010BE00022F2
:100C1D00AB05AA07120D3E7FD0120BA1AF02120B2E
:090C2D00A1AF03120BA1020D1A84
:020B7C00AB07C5
:100B7E00120D3E7FD0120BA1AF03120BA1120D3E30
:100B8E007FD1120BA1120BC1AD07120003120D1A69
:020B9E00AF05A1
:010BA0002232
:040CFA0002460000AE
:100C8900438920758DFD758BFDD28E759850D2AC38
:030C9900D2AF22B5
:100C4D00758901758A67758CFCD28CD2A9D2AFE4F7
:050C5D00F544F54522FD
:03000B00020B25C0
:100B2500C0E0C0D075D000C006758A67758CFCE53D
:100B3500451545AE44700215444E700B754403755A
:0E0B450045E8F546754701D006D0D0D0E03225
:020009000000F5
:0F0CAE00C433333354804212D2A0120CBDC2A003
:030CBD0000002212
:0A0D4900D2A2120CBDC2A3020CBD21
:100AED00EF70027F02BF01027F03D2A0120CBDC2C4
:100AFD00A0EF5402FEC31324FF92A2120CBDD2A08C
:100B0D00120CBDC2A0EF1392A2120CBDD2A0120CFA
:080B1D00BDC2A0D2A2020CBD72
:1009B100E4F51078117C00FD7BFF7A007909FE7F58
:1009C100021206F6E4FE120CB6FFA2A1E4334211B4
:1009D100E51125E0F511120CB60FBF07EDA2A1E458
:1009E100334211A2A1E433FE120CAEE4FFE512C3BF
:1009F10013F512A2A1E433FE120CAE0FBF07EED223
:0F0A0100A3C2A0D2A1E511B51203AF12227F004C
:010A100022C3
:0B0D3200E4FE120D49120AED1209B197
:010D3D002293
:030D5800DFFE2299
:100BFF00D3EF9400EE940040147D6E7C00ED1D70D9
:0D0C0F00011CED4C70F7EF1F70E61E80E336
:010C1C0022B5
:100B530053657474696E672074696D6500536574B9
:100B630074696E67204D656E75004C3A4F70742042
:090B7300523A537572650000004E
:1004EC007F06120B7CEF5470C4540F75F00AA4FEF7
:1004FC00EF540F2EF51375F00A842430FD7F801213
:10050C000CE8E51375F00A84E5F02430FD7F8112C8
:10051C000CE87F05120B7CEF5470C4540F75F00A75
:10052C00A4FEEF540F2EF51475F00A842430FD7FD1
:10053C0082120CE8E51475F00A84E5F02430FD7F96
:10054C0083120CE87F04120B7CEF5470C4540F75AB
:10055C00F00AA4FEEF540F2EF51575F00A84243022
:10056C00FD7F84120CE8E51575F00A84E5F0243063
:10057C00FD7F85120CE87F02120B7CEF5470C45483
:10058C000F75F00AA4FEEF540F2EF51275F00A84C5
:10059C002430FD7F87120CE8E51275F00A84E5F033
:1005AC002430FD7F88120CE87D3A7F89120CE87F9D
:1005BC0001120B7CEF5470C4540F75F00AA4FEEFBB
:1005CC00540F2EF51175F00A842430FD7F8A120C1D
:1005DC00E8E51175F00A84E5F02430FD7F8B120CF0
:1005EC00E87D3A7F8C120CE8E4FF120B7CEF547020
:1005FC00C4540F75F00AA4FEEF540F2EF51075F0CD
:10060C000A842430FD7F8D120CE8E51075F00A8405
:0A061C00E5F02430FD7F8E020CE8AB
:10080A008F108D118B12E51075F00A842430FD7F4C
:10081A00C0120CE8E51075F00A84E5F02430FD7F7B
:10082A00C1120CE87D2E7FC2120CE8E51175F00AA0
:10083A00842430FD7FC3120CE8E51175F00A84E5C3
:10084A00F02430FD7FC4120CE87D257FC5120CE828
:10085A007D527FC6120CE87D487FC7120CE8E5126C
:10086A0075F00A842430FD7FC9120CE8E51275F090
:10087A000A84E5F02430FD7FCA120CE87D2E7FCB76
:10088A00120CE8E51375F00A842430FD7FCC120CB3
:10089A00E8E51375F00A84E5F02430FD7FCD120CEB
:0808AA00E87D437FCE020CE85B
:10000E00781F7C007D007BFF7A0B797A7E007F0261
:10001E001206F6E4F521F5227BFF7A0B7953F52AC9
:10002E00752B0C7D01FC7F01FE120A117F06120B4F
:10003E007C8F12E5125470C4540F75F00AA4FFE5BC
:10004E0012540F2FF51B75F00A842430FD7FC01259
:10005E000CE8E51B75F00A84E5F02430FD7FC11233
:10006E000CE87F05120B7C8F13E5135470C4540FEC
:10007E0075F00AA4FFE513540F2FF51C75F00A84D2
:10008E002430FD7FC2120CE8E51C75F00A84E5F001
:10009E002430FD7FC3120CE87F04120B7C8F14E515
:1000AE00145470C4540F75F00AA4FFE514540F2FA6
:1000BE00F51D75F00A842430FD7FC4120CE8E51D91
:1000CE0075F00A84E5F02430FD7FC5120CE87F023E
:1000DE00120B7C8F15E5155470C4540F75F00AA4DD
:1000EE00FFE515540F2FF51A75F00A842430FD7FA5
:1000FE00C7120CE8E51A75F00A84E5F02430FD7F8E
:10010E00C8120CE87D3A7FC9120CE87F01120B7CF5
:10011E008F16E5165470C4540F75F00AA4FFE51639
:10012E00540F2FF51975F00A842430FD7FCA120C76
:10013E00E8E51975F00A84E5F02430FD7FCB120C4A
:10014E00E87D3A7FCC120CE8E4FF120B7C8F17028D
:10015E0004BA20954A7F647E00120BFF209540055D
:10016E0022E52270020521D39405E5216480948056
:10017E00402DAD127F06120C1DAD137F05120C1D06
:10018E00AD147F04120C1DAD157F02120C1DAD16A1
:10019E007F01120C1DAD17E4FF120C1D020D533022
:1001AE00940302034B7F647E00120BFF3094030214
:1001BE00034BE521600302034BE52214605A1470D1
:1001CE000302026114700302029C1470030202D631
:1001DE001470030203102405600302034B1512E58D
:1001EE0012C394005003751263E5125470C4540F79
:1001FE0075F00AA4FFE512540F2FF51B75F00A8453
:10020E002430FD7FC0120CE8E51B75F00A84E5F082
:10021E002430FD7FC10203481513E513C39401502A
:10022E000375130CE5135470C4540F75F00AA4FF34
:10023E00E513540F2FF51C75F00A842430FD7FC290
:10024E00120CE8E51C75F00A84E5F02430FD7FC33E
:10025E000203481514E514C39401500375141FE5E9
:10026E00145470C4540F75F00AA4FFE514540F2FE4
:10027E00F51D75F00A842430FD7FC4120CE8E51DCF
:10028E0075F00A84E5F02430FD7FC502034815158C
:10029E00E515C394005003751517E5155470C45435
:1002AE000F75F00AA4FFE515540F2FF51A75F00A15
:1002BE00842430FD7FC7120CE8E51A75F00A84E538
:1002CE00F02430FD7FC880721516E516C3940050D9
:1002DE000375163BE5165470C4540F75F00AA4FF4F
:1002EE00E516540F2FF51975F00A842430FD7FCAD8
:1002FE00120CE8E51975F00A84E5F02430FD7FCB89
:10030E0080381517E517C39400500375173BE51792
:10031E005470C4540F75F00AA4FFE517540F2FF54F
:10032E001875F00A842430FD7FCD120CE8E518759F
:10033E00F00A84E5F02430FD7FCE120CE8309603EF
:10034E000201607F647E00120BFF30960302016093
:10035E00E5216003020160E52214605A1470030265
:10036E0003FF14700302043A147003020474147031
:10037E00030204AE240560030201600512E512D3E8
:10038E0094634003E4F512E5125470C4540F75F0F3
:10039E000AA4FFE512540F2FF51B75F00A842430C2
:1003AE00FD7FC0120CE8E51B75F00A84E5F02430E1
:1003BE00FD7FC10204E60513E513D3940C400375CB
:1003CE001301E5135470C4540F75F00AA4FFE5131E
:1003DE00540F2FF51C75F00A842430FD7FC2120CC9
:1003EE00E8E51C75F00A84E5F02430FD7FC30204B5
:1003FE00E60514E514D3941F4003751401E5145457
:10040E0070C4540F75F00AA4FFE514540F2FF51D98
:10041E0075F00A842430FD7FC4120CE8E51D75F0DA
:10042E000A84E5F02430FD7FC50204E60515E515C6
:10043E00D394174003E4F515E5155470C4540F75A5
:10044E00F00AA4FFE515540F2FF51D75F00A84244C
:10045E0030FD7FC7120CE8E51D75F00A84E5F02427
:10046E0030FD7FC880720516E516D3943B4003E439
:10047E00F516E5165470C4540F75F00AA4FFE51670
:10048E00540F2FF51975F00A842430FD7FCA120C13
:10049E00E8E51975F00A84E5F02430FD7FCB80384D
:1004AE000517E517D3943B4003E4F517E517547091
:1004BE00C4540F75F00AA4FFE517540F2FF51875E5
:1004CE00F00A842430FD7FCD120CE8E51875F00A91
:0E04DE0084E5F02430FD7FCE120CE8020160B0
:100A6500E4F510F5117BFF7A0B7960F52A752B0CEF
:100A75007D01FC7F01FE120A117BFF7A0B796D75F2
:100A85002A00752B0CE4FDFC7F02FE120A117FE89B
:100A95007E03120BFF209603020D532094F7120DCF
:040AA5005312000EDA
:010AA900222A
:100C3600D3EF9400EE9400400DE4FD0DBD1BFCEFD8
:060C46001F70ED1E80EAA4
:010C4C002285
:0C0D0D00151015101510151015101510FC
:010D190022B7
:100AAA00E4FF75330220A407AE330533EE70F61265
:100ABA000D0D120D0D120D0DE4F53630A403753629
:100ACA000175330230A407AE330533EE70F6E53311
:100ADA006401600EE53B25E0F53BE536423B0FBF7E
:020AEA0008C042
:010AEC0022E7
:10093E00C2A47FB47E00120C36D2A4120D0D120D7D
:10094E000D120D0D120D0DD2A420A45675330220DA
:10095E00A407AF330533EF70F675330230A407AF3B
:10096E00330533EF70F6120AAA853B39120AAA85AF
:10097E003B3A120AAA853B31120AAA853B32120A69
:10098E00AA853B35D2A4E53125322539253AF536EF
:10099E00B5350F853937853A3885312F8532308513
:0309AE00353422BB
:030000000208B241
:0C08B200787FE4F6D8FD7581470208F954
:10062600E709F608DFFA8046E709F208DFFA803EB6
:1006360088828C83E709F0A3DFFA8032E309F608A3
:10064600DFFA8078E309F208DFFA807088828C830B
:10065600E309F0A3DFFA806489828A83E0A3F608BF
:10066600DFFA805889828A83E0A3F208DFFA804C99
:1006760080D280FA80C680D4806980F28033801070
:1006860080A680EA809A80A880DA80E280CA8033D9
:1006960089828A83ECFAE493A3C8C582C8CCC58351
:1006A600CCF0A3C8C582C8CCC583CCDFE9DEE78021
:1006B6000D89828A83E493A3F608DFF9ECFAA9F0A0
:1006C600EDFB2289828A83ECFAE0A3C8C582C8CCF6
:1006D600C583CCF0A3C8C582C8CCC583CCDFEADE0F
:1006E600E880DB89828A83E493A3F208DFF980CC71
:1006F60088F0EF60010E4E60C388F0ED2402B4046A
:100706000050B9F582EB2402B4040050AF23234510
:06071600822390067673B9
:10071C00BB010CE58229F582E5833AF583E0225092
:10072C0006E92582F8E622BBFE06E92582F8E222DC
:0D073C00E58229F582E5833AF583E49322F6
:1008BE00020749E493A3F8E493A34003F68001F200
:1008CE0008DFF48029E493A3F85407240CC8C3333B
:1008DE00C4540F4420C8834004F456800146F6DF0A
:1008EE00E4800B0102040810204080900CF0E47E9E
:1008FE00019360BCA3FF543F30E509541FFEE493FF
:10090E00A360010ECF54C025E060A840B8E493A3C5
:10091E00FAE493A3F8E493A3C8C582C8CAC583CAF0
:10092E00F0A3C8C582C8CAC583CADFE9DEE780BEA8
:010CFE0000F5
:00000001FF
