:100F3800082F54657374204F4B000437428C00000F
:060F4800043B4220000002
:1008AA00E4F508F509F50AF50B120F98120FBF12B5
:1008BA001070120F83E4FDFF120F537D307F011277
:1008CA000F537D127F02120F537D037F03120F53C2
:1008DA007D017F04120F537D017F05120F537D2482
:1008EA007F06120F5320950612107A120D80120CF1
:1008FA0059853F13AB3FAD48AF47120B25AC48E4CF
:10090A001206FBE4FBFA79C878421205E7C004C074
:10091A0005C006C007AC47E41206FBD003D002D0DC
:10092A0001D0001204F3AB3AAA39A938A837120643
:10093A00844036AC3FE41206FBE4FBFA79C87842FD
:10094A001205E7C004C005C006C007AC3FE41206A2
:10095A00FBD003D002D001D0001204F3AB3EAA3D73
:10096A00A93CA83B120684500FC292C2937FC87E4C
:10097A0000120F1AD292D293E54F454E7003020825
:10098A00EFE4F54EF54FE50B450A70047F0180024E
:10099A007F00750A008F0BE50B450A60061209EB0A
:1009AA000208EF12107A1210598F0FE50F75F00A2C
:1009BA00842430FD7F8012101EE50F75F00A84E54D
:1009CA00F02430FD7F8112101E7D427F8212101E9C
:1009DA007D507F8312101E7D4D7F8412101E0208E7
:0109EA00EF1D
:100FD2007580FFC2A5D2A6D2A7AF80C2A7EF20E735
:010FE200F618
:010FE30022EB
:100FF600AE07120FD2C2A5C2A68E80D2A7C2A72262
:10100600AE07120FD2D2A5C2A68E80D2A7C2A72241
:100F98007F38120FF67F0C120FF67F06120FF67FBE
:040FA80001020FF63D
:05107A007F01020FF6EA
:081016007F8312101E0D7FC341
:08101E00120FF6AF05021006E7
:0A0D2C008C258D268B278A28892943
:100D3600752E80EF64024E70067440252EF52EE463
:100D4600F52CF52DC3E52D952BE52A6480F8E52CC9
:100D56006480985024E52E252D2526FFAB27AA284A
:100D6600A929852D82852C8312086FFD12101E0578
:090D76002DE52D70CF052C80CB7A
:010D7F002251
:100EFC007D331210167FE87E03120F1A12107A7DC2
:0E0F0C00351210167FE87E03120F1A02107ABB
:040FAC00D290D2917C
:0E0FB000E4FFFE0FBF00010EEF640A4E70F565
:010FBE002210
:0B106500120FACC290120FB0C291221B
:0C104100C290D291120FB0D290020FB0FA
:0C104D00C290D291120FB0C291D290223A
:06000300120FACC29122B5
:0E102600120FAC309004C291C322C291D322AB
:020EBC00AD0780
:100EBE00E4FCED30E703D38001C39290ED25E0FD15
:0E0ECE00D291120FB0C2910CBC08E7021026A0
:100EDC00E4FDD290FCD291120FB0ED25E0FD3090E4
:0F0EEC0003430501C291120FB00CBC08E8AF051B
:010EFB0022D4
:100F5300AB05AA071210657FD0120EBCAF02120EAA
:090F6300BCAF03120EBC021041E8
:020E9700AB07A7
:100E99001210657FD0120EBCAF03120EBC12106582
:100EA9007FD1120EBC120EDCAD07120003121041E5
:020EB900AF0583
:010EBB002214
:040F4E00024E00004F
:100FBF00438920758DFD758BFDD28E759850D2ACFF
:030FCF00D2AF227C
:100F8300758901758A67758CFCD28CD2A9D2AFE4BE
:050F9300F54CF54D22B4
:03000B00020E40A2
:100E4000C0E0C0D075D000C006758A67758CFCE51F
:100E50004D154DAE4C7002154C4E700B754C037514
:0E0E60004DE8F54E754F01D006D0D0D0E032EF
:020009000000F5
:0F0FE400C433333354804212D2A0120FF3C2A091
:030FF300000022D9
:0A107000D2A2120FF3C2A3020FF385
:100E0800EF70027F02BF01027F03D2A0120FF3C26C
:100E1800A0EF5402FEC31324FF92A2120FF3D2A034
:100E2800120FF3C2A0EF1392A2120FF3D2A0120F67
:080E3800F3C2A0D2A2020FF3E5
:100CCC00E4F51078117C00FD7BFF7A007909FE7F3A
:100CDC0002120849E4FE120FECFFA2A1E433421108
:100CEC00E51125E0F511120FEC0FBF07EDA2A1E401
:100CFC00334211A2A1E433FE120FE4E4FFE512C368
:100D0C0013F512A2A1E433FE120FE40FBF07EED2CB
:0F0D1C00A3C2A0D2A1E511B51203AF12227F002E
:010D2B0022A5
:0B105900E4FE121070120E08120CCC06
:011064002269
:03107F00DFFE226F
:100F1A00D3EF9400EE940040147D6E7C00ED1D70BA
:0D0F2A00011CED4C70F7EF1F70E61E80E318
:010F37002297
:100E6E0053657474696E672074696D65005365749B
:100E7E0074696E67204D656E75004C3A4F70742024
:090E8E00523A5375726500000030
:1009EB007F06120E97EF5470C4540F75F00AA4FED5
:1009FB00EF540F2EF51375F00A842430FD7F80120F
:100A0B00101EE51375F00A84E5F02430FD7F81128A
:100A1B00101E7F05120E97EF5470C4540F75F00A19
:100A2B00A4FEEF540F2EF51475F00A842430FD7FCD
:100A3B008212101EE51475F00A84E5F02430FD7F58
:100A4B008312101E7F04120E97EF5470C4540F754F
:100A5B00F00AA4FEEF540F2EF51575F00A8424301E
:100A6B00FD7F8412101EE51575F00A84E5F0243025
:100A7B00FD7F8512101E7F02120E97EF5470C45427
:100A8B000F75F00AA4FEEF540F2EF51275F00A84C1
:100A9B002430FD7F8712101EE51275F00A84E5F0F5
:100AAB002430FD7F8812101E7D3A7F8912101E7F25
:100ABB0001120E97EF5470C4540F75F00AA4FEEF99
:100ACB00540F2EF51175F00A842430FD7F8A121015
:100ADB001EE51175F00A84E5F02430FD7F8B1210B2
:100AEB001E7D3A7F8C12101EE4FF120E97EF54708E
:100AFB00C4540F75F00AA4FEEF540F2EF51075F0C9
:100B0B000A842430FD7F8D12101EE51075F00A84C7
:0A0B1B00E5F02430FD7F8E02101E6D
:100B25008F108D118B12E51075F00A842430FD7F2E
:100B3500C012101EE51075F00A84E5F02430FD7F23
:100B4500C112101E7D2E7FC212101EE51175F00A0E
:100B5500842430FD7FC312101EE51175F00A84E56B
:100B6500F02430FD7FC412101E7D257FC512101E96
:100B75007D527FC612101E7D487FC712101EE512DA
:100B850075F00A842430FD7FC912101EE51275F038
:100B95000A84E5F02430FD7FCA12101E7D2E7FCB1E
:100BA50012101EE51375F00A842430FD7FCC121057
:100BB5001EE51375F00A84E5F02430FD7FCD121093
:080BC5001E7D437FCE02101ECD
:10000E00781F7C007D007BFF7A0E79957E007F0243
:10001E00120849E4F521F5227BFF7A0E796EF52A56
:10002E00752B0C7D01FC7F01FE120D2C7F06120E2E
:10003E00978F12E5125470C4540F75F00AA4FFE5A1
:10004E0012540F2FF51B75F00A842430FD7FC01259
:10005E00101EE51B75F00A84E5F02430FD7FC112F9
:10006E00101E7F05120E978F13E5135470C4540F94
:10007E0075F00AA4FFE513540F2FF51C75F00A84D2
:10008E002430FD7FC212101EE51C75F00A84E5F0C7
:10009E002430FD7FC312101E7F04120E978F14E5BD
:1000AE00145470C4540F75F00AA4FFE514540F2FA6
:1000BE00F51D75F00A842430FD7FC412101EE51D57
:1000CE0075F00A84E5F02430FD7FC512101E7F0204
:1000DE00120E978F15E5155470C4540F75F00AA4BF
:1000EE00FFE515540F2FF51A75F00A842430FD7FA5
:1000FE00C712101EE51A75F00A84E5F02430FD7F54
:10010E00C812101E7D3A7FC912101E7F01120E9763
:10011E008F16E5165470C4540F75F00AA4FFE51639
:10012E00540F2FF51975F00A842430FD7FCA121072
:10013E001EE51975F00A84E5F02430FD7FCB121010
:10014E001E7D3A7FCC12101EE4FF120E978F1702FF
:10015E0004BA20954A7F647E00120F1A209540053E
:10016E0022E52270020521D39405E5216480948056
:10017E00402DAD127F06120F53AD137F05120F5394
:10018E00AD147F04120F53AD157F02120F53AD162F
:10019E007F01120F53AD17E4FF120F5302107A3086
:1001AE00940302034B7F647E00120F1A30940302F5
:1001BE00034BE521600302034BE52214605A1470D1
:1001CE000302026114700302029C1470030202D631
:1001DE001470030203102405600302034B1512E58D
:1001EE0012C394005003751263E5125470C4540F79
:1001FE0075F00AA4FFE512540F2FF51B75F00A8453
:10020E002430FD7FC012101EE51B75F00A84E5F048
:10021E002430FD7FC10203481513E513C39401502A
:10022E000375130CE5135470C4540F75F00AA4FF34
:10023E00E513540F2FF51C75F00A842430FD7FC290
:10024E0012101EE51C75F00A84E5F02430FD7FC304
:10025E000203481514E514C39401500375141FE5E9
:10026E00145470C4540F75F00AA4FFE514540F2FE4
:10027E00F51D75F00A842430FD7FC412101EE51D95
:10028E0075F00A84E5F02430FD7FC502034815158C
:10029E00E515C394005003751517E5155470C45435
:1002AE000F75F00AA4FFE515540F2FF51A75F00A15
:1002BE00842430FD7FC712101EE51A75F00A84E5FE
:1002CE00F02430FD7FC880721516E516C3940050D9
:1002DE000375163BE5165470C4540F75F00AA4FF4F
:1002EE00E516540F2FF51975F00A842430FD7FCAD8
:1002FE0012101EE51975F00A84E5F02430FD7FCB4F
:10030E0080381517E517C39400500375173BE51792
:10031E005470C4540F75F00AA4FFE517540F2FF54F
:10032E001875F00A842430FD7FCD12101EE5187565
:10033E00F00A84E5F02430FD7FCE12101E309603B5
:10034E000201607F647E00120F1A30960302016074
:10035E00E5216003020160E52214605A1470030265
:10036E0003FF14700302043A147003020474147031
:10037E00030204AE240560030201600512E512D3E8
:10038E0094634003E4F512E5125470C4540F75F0F3
:10039E000AA4FFE512540F2FF51B75F00A842430C2
:1003AE00FD7FC012101EE51B75F00A84E5F02430A7
:1003BE00FD7FC10204E60513E513D3940C400375CB
:1003CE001301E5135470C4540F75F00AA4FFE5131E
:1003DE00540F2FF51C75F00A842430FD7FC21210C5
:1003EE001EE51C75F00A84E5F02430FD7FC302047F
:1003FE00E60514E514D3941F4003751401E5145457
:10040E0070C4540F75F00AA4FFE514540F2FF51D98
:10041E0075F00A842430FD7FC412101EE51D75F0A0
:10042E000A84E5F02430FD7FC50204E60515E515C6
:10043E00D394174003E4F515E5155470C4540F75A5
:10044E00F00AA4FFE515540F2FF51D75F00A84244C
:10045E0030FD7FC712101EE51D75F00A84E5F024ED
:10046E0030FD7FC880720516E516D3943B4003E439
:10047E00F516E5165470C4540F75F00AA4FFE51670
:10048E00540F2FF51975F00A842430FD7FCA12100F
:10049E001EE51975F00A84E5F02430FD7FCB803817
:1004AE000517E517D3943B4003E4F517E517547091
:1004BE00C4540F75F00AA4FFE517540F2FF51875E5
:1004CE00F00A842430FD7FCD12101EE51875F00A57
:0E04DE0084E5F02430FD7FCE12101E02016076
:100D8000E4F510F5117BFF7A0E797BF52A752B0CB3
:100D90007D01FC7F01FE120D2C7BFF7A0E79887598
:100DA0002A00752B0CE4FDFC7F02FE120D2C7FE85F
:100DB0007E03120F1A20960302107A2094F7121065
:040DC0007A12000E95
:010DC400220C
:100F6C00D3EF9400EE9400400DE4FD0DBD1BFCEF9F
:060F7C001F70ED1E80EA6B
:010F8200224C
:0C103400151015101510151015101510D2
:01104000228D
:100DC500E4FF75430220A407AE430543EE70F61217
:100DD5001034121034121034E4F54630A40375466D
:100DE5000175430230A407AE430543EE70F6E543B3
:100DF5006401600EE54B25E0F54BE546424B0FBF20
:020E050008C023
:010E070022C8
:100C5900C2A47FB47E00120F6CD2A41210341210F9
:100C690034121034121034D2A420A4567543022031
:100C7900A407AF430543EF70F675430230A407AFED
:100C8900430543EF70F6120DC5854B49120DC58515
:100C99004B4A120DC5854B41120DC5854B42120DAC
:100CA900C5854B45D2A4E54125422549254AF54646
:100CB900B5450F854947854A4885413F8542408565
:030CC9004544227D
:1004EC00020764E86480F8E933E83360110460F0D3
:1004FC00ED33EC337009E8FCE9FDEAFEEBFF220476
:10050C0060DED3EB9FEA9EE99DE8C2E78CF0C2F770
:10051C0095F0400CE8CCF8E9CDF9EACEFAEBCFFB3C
:10052C0012072F85D0F05804700320D5B3E804705F
:10053C00075002B2D502076E92D5EC0460F7E4CCFA
:10054C00C0E0C398F8603B94186008400DD0E0FB05
:10055C00020746E4FBFAC9FC8028E830E406E4C94B
:10056C00FBE4CAFCE830E305E4C9CACBFCE8540759
:10057C006010F8C3E913F9EA13FAEB13FBEC13FC64
:10058C00D8F130F52FC3E49CFCEF9BFFEE9AFEED07
:10059C0099FDD0E0FBEF4E4D4C701222DB030207AD
:1005AC006BEC2CFCEF33FFEE33FEED33FDED30E75F
:1005BC00EB020746EF2BFFEE3AFEED39FDD0E0FBE8
:1005CC0050130BBB000302076EED13FDEE13FEEF91
:0805DC0013FFEC13FC020746BB
:1005E40002076EEC5D046005E859047003020764B9
:1005F40012072F580460F6EC4860F2EC7004FDFE1C
:10060400FF22C860DB2481C85009C39860025006E9
:1006140002076B9850CAF582E9294B4A7005AB82F0
:1006240002075A75F0007C1A7880C3EF9BEE9AEDAE
:1006340099400DC3EF9BFFEE9AFEED99FDE842F061
:10064400DC23ACF0D0E0FFD0E0FED0E0FDAB8220B4
:10065400E7101BEB60BAEC2CFCEF33FFEE33FEED3E
:1006640033FD020746E803F830E705C0F075F000F3
:10067400EF2FFFEE33FEED33FD40B830E7C280AA22
:1006840074F8CC6480CCC86480C8F582046043C329
:10069400EB9FF5F0EA9E42F0E99D42F0E89C45F0BC
:1006A40060305018E5825FFFE582F42B5582FB50E1
:1006B400210ABA001D09B90019088016E5825BFBFE
:1006C400E582F42F5582FF50090EBE00050DBD00D2
:1006D400010CC3EB9FF5F0EA9E42F0E99D42F0E87D
:0D06E4009C45F06007CC4820E701B3EC22F4
:1006F10075F020800E75F010800575F0087D007E84
:10070100007F003392D530D50312089CEC334010A2
:10071100EF33FFEE33FEED33FDEC33FCD5F0ED228C
:0E072100E5F0247EA2D513CC92E7CDCEFF22C8
:10072F00E9D2E7C933E833F892D5EDD2E7CD33EC10
:07073F0033FC5002B2D52289
:10074600EC30E7100FBF000C0EBE00080DBD000414
:100756000BEB6014A2D5EB13FCED92E7FD2274FFC0
:10076600FCFDFEFF22E480F8A2D574FF13FC7D8019
:03077600E480EF2D
:03000000020BCD23
:0C0BCD00787FE4F6D8FD75814F020C140F
:10077900E709F608DFFA8046E709F208DFFA803E62
:1007890088828C83E709F0A3DFFA8032E309F6084F
:10079900DFFA8078E309F208DFFA807088828C83B7
:1007A900E309F0A3DFFA806489828A83E0A3F6086B
:1007B900DFFA805889828A83E0A3F208DFFA804C45
:1007C90080D280FA80C680D4806980F2803380101C
:1007D90080A680EA809A80A880DA80E280CA803385
:1007E90089828A83ECFAE493A3C8C582C8CCC583FD
:1007F900CCF0A3C8C582C8CCC583CCDFE9DEE780CD
:100809000D89828A83E493A3F608DFF9ECFAA9F04B
:10081900EDFB2289828A83ECFAE0A3C8C582C8CCA1
:10082900C583CCF0A3C8C582C8CCC583CCDFEADEBA
:10083900E880DB89828A83E493A3F208DFF980CC1C
:1008490088F0EF60010E4E60C388F0ED2402B40415
:100859000050B9F582EB2402B4040050AF232345BC
:0608690082239007C97311
:10086F00BB010CE58229F582E5833AF583E022503E
:10087F0006E92582F8E622BBFE06E92582F8E22288
:0D088F00E58229F582E5833AF583E49322A2
:0E089C00C3E49FFFE49EFEE49DFDE49CFC226D
:100BD9000208AAE493A3F8E493A34003F68001F280
:100BE90008DFF48029E493A3F85407240CC8C3331D
:100BF900C4540F4420C8834004F456800146F6DFEC
:100C0900E4800B0102040810204080900F38E47E34
:100C1900019360BCA3FF543F30E509541FFEE493E0
:100C2900A360010ECF54C025E060A840B8E493A3A7
:100C3900FAE493A3F8E493A3C8C582C8CAC583CAD2
:100C4900F0A3C8C582C8CAC583CADFE9DEE780BE8A
:010F5200009E
:00000001FF
