:0508320025640D0A0021
:0A081200082254657374204F4B0058
:1006C90012077912073DE4FF1208068F0F7BFF7AA4
:0F06D9000879321200707FE87E0312070680E76F
:10078C007580FFC2A5D2A6D2A7AF80C2A7EF20E783
:01079C00F666
:01079D002239
:1007B000AE0712078CC2A5C2A68E80D2A7C2A722FE
:1007C000AE0712078CD2A5C2A68E80D2A7C2A722DE
:100752007F381207B07F0C1207B07F061207B07FF6
:04076200010207B0D9
:050837007F010207B083
:0807D0007F831207D80D7FC3DF
:0807D8001207B0AF050207C0D3
:1006E8007D331207D07FE87E031207061208377D94
:0E06F800351207D07FE87E031207060208378E
:04076600D290D291CA
:0E076A00E4FFFE0FBF00010EEF640A4E70F5B3
:01077800225E
:0B081D00120766C29012076AC2912207
:0C07EE00C290D29112076AD29002076AF2
:0C07FA00C290D29112076AC291D29022E4
:06000300120766C2912203
:0E07E000120766309004C291C322C291D32248
:02068900AD07BB
:10068B00E4FCED30E703D38001C39290ED25E0FD50
:0E069B00D29112076AC2910CBC08E70207E078
:1006A900E4FDD290FCD29112076AED25E0FD30906D
:0F06B90003430501C29112076A0CBC08E8AF05A4
:0106C800220F
:10072400AB05AA0712081D7FD0120689AF02120674
:0907340089AF031206890207EEE9
:02066400AB07E2
:1006660012081D7FD0120689AF0312068912081DD3
:100676007FD11206891206A9AD071200031207EEF2
:02068600AF05BE
:01068800224F
:10077900438920758DFD758BFDD28E759850D2AC4D
:03078900D2AF22CA
:10073D00758901758A67758CFCD28CD2A9D2AFE40C
:05074D00F52AF52B2246
:03000B00020612D8
:10061200C0E0C0D075D000C006758A67758CFCE555
:100622002B152BAE2A7002152A4E7008752A0375F7
:0B0632002BE8B290D006D0D0D0E03210
:020009000000F5
:0F079E00C43333335480420ED2A01207ADC2A031
:0307AD0000002227
:0A082800D2A21207ADC2A30207AD71
:1005DA00EF70027F02BF01027F03D2A01207ADC2F1
:1005EA00A0EF5402FEC31324FF92A21207ADD2A0B9
:1005FA001207ADC2A0EF1392A21207ADD2A0120742
:08060A00ADC2A0D2A20207ADAF
:10057A00E4F50C780D7C00FD7BFF7A007909FE7F9B
:10058A000212043AE4FE1207A6FFA2A1E433420DC6
:10059A00E50D25E0F50D1207A60FBF07EDA2A1E4B0
:1005AA0033420DA2A1E433FE12079EE4FFE50EC317
:1005BA0013F50EA2A1E433FE12079E0FBF07EED277
:0F05CA00A3C2A0D2A1E50DB50E03AF0E227F0094
:0105D90022FF
:0B080600E4FE1208281205DA12057A41
:0108110022C4
:03083C00DFFE22BA
:10070600D3EF9400EE940040147D6E7C00ED1D70D6
:0D071600011CED4C70F7EF1F70E61E80E334
:0107230022B3
:030000000204EE09
:0C04EE00787FE4F6D8FD75812B020535FF
:10036A00E709F608DFFA8046E709F208DFFA803E75
:10037A0088828C83E709F0A3DFFA8032E309F60862
:10038A00DFFA8078E309F208DFFA807088828C83CA
:10039A00E309F0A3DFFA806489828A83E0A3F6087E
:1003AA00DFFA805889828A83E0A3F208DFFA804C58
:1003BA0080D280FA80C680D4806980F2803380102F
:1003CA0080A680EA809A80A880DA80E280CA803398
:1003DA0089828A83ECFAE493A3C8C582C8CCC58310
:1003EA00CCF0A3C8C582C8CCC583CCDFE9DEE780E0
:1003FA000D89828A83E493A3F608DFF9ECFAA9F05F
:10040A00EDFB2289828A83ECFAE0A3C8C582C8CCB4
:10041A00C583CCF0A3C8C582C8CCC583CCDFEADECD
:10042A00E880DB89828A83E493A3F208DFF980CC2F
:10043A0088F0EF60010E4E60C388F0ED2402B40428
:10044A000050B9F582EB2402B4040050AF232345CF
:06045A0082239003BA7337
:10000E00E51B240FF8E6051B22780C300702780F4B
:10001E00E475F0011204B80204602000EB7F2ED2CA
:10002E00008018EF540F2490D43440D4FF30040BCA
:10003E00EF24BFB41A0050032461FFE51C600215C3
:10004E001C051FE51F7002051E30070D780CE475A8
:10005E00F0011204B8EF0204A602063D7403D207A3
:10006E008003E4C207F51B8B0C8A0D890EE4F51C88
:10007E00F51EF51FE51C60077F2012004980F575FF
:10008E001DFFC201C200C202C203C205C206C208DF
:10009E00120017FF700D3007057F0012005AAF1FB8
:1000AE00AE1E22B4255FC2D5C204120017FF24D0A3
:1000BE00B40A00501A75F00A781C30D50508B6FF40
:1000CE000106C6A426F620D5047002D20380D924D8
:1000DE00CFB41A00EF5004C2E5D20402025AD20184
:1000EE0080C6D20080C0D20280BCD2D580BAD205E2
:1000FE0080B47F201200492002077401B51C004015
:10010E00F112000EFF120049020082D208D20680C0
:10011E009512000EFB12000EFA12000EF94A4B70E9
:10012E0006792B7A037BFF20022EE51C602A7E00C7
:10013E008E8275830012047960060EEE651D70F0D6
:10014E00C2D5EBC0E0EAC0E0E9C0E0EE1202A1D0F9
:10015E00E0F9D0E0FAD0E0FB120460FF60AAEBC039
:10016E00E0EAC0E0E9C0E0120049D0E02401F9D095
:10017E00E03400FAD0E0FBE51D0460DCD51DD9802B
:10018E00877BFF7A02799DD202809C79108002795A
:10019E0008C206C2088008D2D5790A8004790AC23C
:1001AE00D5E51D047002F51DE4FAFDFEFF12000EEA
:1001BE00FC7B0820011312000EFD7B1030000A128A
:1001CE00000EFE12000EFF7B20EC3382D592D5502E
:1001DE0013C3E43000069FFFE49EFEE42001039D5E
:1001EE00FDE49CFCE4CBF8C201EC700CCFCECDCC80
:1001FE00E824F8F870F38017C3EF33FFEE33FEED0B
:10020E0033FDEC33FCEB33FB994002FB0FD8E9EBEB
:10021E00300105F8D0E0C448B201C0E00AEC4D4E02
:10022E004F78207B0070C2EAB51D0040BCC0E012C2
:10023E0002A3D0F0D0E0200104C4C0E0C4B201C0DB
:10024E00F0120032D0F0D5F0EB0200821204C80199
:10025E001F5301995800F04C00EC42019D4F01A52F
:0F026E004401A54901054301AB55018F46018F9E
:10027D0045018F47034B5000F42D00F82E011B2B29
:10028D0000FC2301192003342A00B4480000011397
:10029D003F3F3F00790AA2D5200314300509B9105C
:1002AD00020404B9080104A2D5200602500104205D
:1002BD0002689202B51C005034C0E07F2030031953
:1002CD007F30A20272067205500F1202FAC202C2EC
:1002DD0006C205C2087F30800F300503E9C0E01269
:1002ED000049300503D0E0F9D0E0B51CCC3005173E
:1002FD007F30B9100C1200497F583004077F788089
:10030D0003B908031200493002057F2D0200497F11
:10031D00202008F87F2B2006F322920280CF286E32
:10032D00756C6C2900D20112000E3001F8C20178F3
:10033D001C30D50108F60200B42D50434958120067
:10034D000E2403B405004001E49003469312003AD5
:0D035D00743A12003AD203751C0402019993
:1004FA000206C9E493A3F8E493A34003F68001F249
:10050A0008DFF48029E493A3F85407240CC8C33302
:10051A00C4540F4420C8834004F456800146F6DFD1
:10052A00E4800B0102040810204080900812E47E47
:10053A00019360BCA3FF543F30E509541FFEE493C6
:10054A00A360010ECF54C025E060A840B8E493A38D
:10055A00FAE493A3F8E493A3C8C582C8CAC583CAB8
:10056A00F0A3C8C582C8CAC583CADFE9DEE780BE70
:01081C0000DB
:10046000BB010689828A83E0225002E722BBFE029A
:09047000E32289828A83E49322CD
:10047900BB010CE58229F582E5833AF583E0225038
:1004890006E92582F8E622BBFE06E92582F8E22282
:0D049900E58229F582E5833AF583E493229C
:1004A600BB010689828A83F0225002F722BBFE0135
:0204B600F3222F
:1004B800FAE6FB0808E6F925F0F618E6CA3AF62245
:1004C800D083D082F8E4937012740193700DA3A3C3
:1004D80093F8740193F5828883E4737402936860D7
:0604E800EFA3A3A380DFD7
:10063D00EFB40A07740D120648740A309811A89980
:10064D00B8130CC2983098FDA899C298B811F6301D
:07065D0099FDC299F59922F5
:00000001FF
