:0A053E00081454657374204F4B003D
:10032A00E4F508F5091204B01204D712058A12047A
:10033A009BE4FDFF1204827D307F011204827D124C
:10034A007F021204827D037F031204827D017F04EF
:10035A001204827D017F051204827D177F06120432
:10036A0082E51F451E60FAE4F51EF51F12000E8095
:01037A00F092
:1004EA007580FFC2A5D2A6D2A7AF80C2A7EF20E728
:0104FA00F60B
:0104FB0022DE
:10050E00AE071204EAC2A5C2A68E80D2A7C2A72247
:10051E00AE071204EAD2A5C2A68E80D2A7C2A72227
:1004B0007F3812050E7F0C12050E7F0612050E7F87
:0404C0000102050E22
:050594007F0102050ECD
:08052E007F831205360D7FC327
:0805360012050EAF0502051EBF
:100446007D3312052E7FE87E031204641205947D27
:0E0456003512052E7FE87E0312046402059421
:0404C400D290D2916F
:0E04C800E4FFFE0FBF00010EEF640A4E70F558
:0104D6002203
:0B057F001204C4C2901204C8C29122F2
:0C055B00C290D2911204C8D2900204C8D1
:0C056700C290D2911204C8C291D290221E
:060003001204C4C29122A8
:0E054D001204C4309004C291C322C291D32282
:02040600AD0740
:10040800E4FCED30E703D38001C39290ED25E0FDD5
:0E041800D2911204C8C2910CBC08E702054D37
:10042600E4FDD290FCD2911204C8ED25E0FD309097
:0F04360003430501C2911204C80CBC08E8AF05CE
:010445002294
:10048200AB05AA0712057F7FD0120406AF02120441
:0904920006AF0312040602055B2B
:0203E100AB0768
:1003E30012057F7FD0120406AF0312040612057FA5
:1003F3007FD1120406120426AD0712000312055B17
:02040300AF0543
:0104050022D4
:04054800021E00008F
:1004D700438920758DFD758BFDD28E759850D2ACF2
:0304E700D2AF226F
:10049B00758901758A67758CFCD28CD2A9D2AFE4B1
:0504AB00F51CF51D2207
:03000B000203B33A
:1003B300C0E0C0D075D000C006758A67758CFCE5B7
:1003C3001D151DAE1C7002151C4E700B751C03759C
:0E03D3001DE8F51E751F01D006D0D0D0E03217
:020009000000F5
:0F04FC00C433333354804222D2A012050BC2A066
:03050B00000022CB
:0A058A00D2A212050BC2A302050B5A
:10037B00EF70027F02BF01027F03D2A012050BC2F6
:10038B00A0EF5402FEC31324FF92A212050BD2A0BE
:10039B0012050BC2A0EF1392A212050BD2A01205ED
:0803AB000BC2A0D2A202050B57
:1002CA00E4F52078217C00FD7BFF7A007909FE7F26
:1002DA0002120218E4FE120504FFA2A1E43342212D
:1002EA00E52125E0F5211205040FBF07EDA2A1E4DF
:1002FA00334221A2A1E433FE1204FCE4FFE522C347
:10030A0013F522A2A1E433FE1204FC0FBF07EED2BA
:0F031A00A3C2A0D2A1E521B52203AF22227F000A
:0103290022B1
:0B057300E4FE12058A12037B1202CA8C
:01057E00225A
:03059900DFFE2260
:10046400D3EF9400EE940040147D6E7C00ED1D707B
:0D047400011CED4C70F7EF1F70E61E80E3D9
:010481002258
:10000E007F061203E1EF5470C4540F75F00AA4FE7C
:10001E00EF540F2EF51075F00A842430FD7F8012F8
:10002E000536E51075F00A84E5F02430FD7F811267
:10003E0005367F051203E1EF5470C4540F75F00AB4
:10004E00A4FEEF540F2EF51175F00A842430FD7FB7
:10005E0082120536E51175F00A84E5F02430FD7F35
:10006E00831205367F041203E1EF5470C4540F75EA
:10007E00F00AA4FEEF540F2EF51275F00A84243008
:10008E00FD7F84120536E51275F00A84E5F0243002
:10009E00FD7F851205367F021203E1EF5470C454C2
:1000AE000F75F00AA4FEEF540F2EF50F75F00A84AB
:1000BE002430FD7F87120536E50F75F00A84E5F0D2
:1000CE002430FD7F881205367D3A7F891205367FF2
:1000DE00011203E1EF5470C4540F75F00AA4FEEF41
:1000EE00540F2EF50E75F00A842430FD7F8A12050A
:1000FE0036E50E75F00A84E5F02430FD7F8B12058F
:10010E00367D3A7F8C120536E4FF1203E1EF547010
:10011E00C4540F75F00AA4FEEF540F2EF50D75F0B2
:10012E000A842430FD7F8D120536E50D75F00A84A4
:0A013E00E5F02430FD7F8E02053647
:0300000002023EBB
:0C023E00787FE4F6D8FD7581220202856D
:10014800E709F608DFFA8046E709F208DFFA803E99
:1001580088828C83E709F0A3DFFA8032E309F60886
:10016800DFFA8078E309F208DFFA807088828C83EE
:10017800E309F0A3DFFA806489828A83E0A3F608A2
:10018800DFFA805889828A83E0A3F208DFFA804C7C
:1001980080D280FA80C680D4806980F28033801053
:1001A80080A680EA809A80A880DA80E280CA8033BC
:1001B80089828A83ECFAE493A3C8C582C8CCC58334
:1001C800CCF0A3C8C582C8CCC583CCDFE9DEE78004
:1001D8000D89828A83E493A3F608DFF9ECFAA9F083
:1001E800EDFB2289828A83ECFAE0A3C8C582C8CCD9
:1001F800C583CCF0A3C8C582C8CCC583CCDFEADEF2
:10020800E880DB89828A83E493A3F208DFF980CC53
:1002180088F0EF60010E4E60C388F0ED2402B4044C
:100228000050B9F582EB2402B4040050AF232345F3
:060238008223900198737F
:10024A0002032AE493A3F8E493A34003F68001F29D
:10025A0008DFF48029E493A3F85407240CC8C333B5
:10026A00C4540F4420C8834004F456800146F6DF84
:10027A00E4800B010204081020408090053EE47ED1
:10028A00019360BCA3FF543F30E509541FFEE49379
:10029A00A360010ECF54C025E060A840B8E493A340
:1002AA00FAE493A3F8E493A3C8C582C8CAC583CA6B
:1002BA00F0A3C8C582C8CAC583CADFE9DEE780BE23
:01054C0000AE
:00000001FF
