:1017DB00686561727420726174653A2530327800E5
:1016F500080854657374204F4B000410428C000099
:0617050004144220000064
:10102200E4F522F523F524F52512176A121740126A
:101032001865121755E4FDFF1217107D307F01125B
:1010420017107D127F021217107D037F03121710F3
:101052007D017F041217107D017F051217107D2478
:101062007F0612171020950612186F12151612130A
:10107200EF855D41AB5DAD66AF651212BBAC66E458
:1010820012021DE4FBFA79C87842120109C004C0B9
:1010920005C006C007AC65E412021DD003D002D021
:1010A20001D000120015AB13AA12A911A810120147
:1010B200A64036AC5DE412021DE4FBFA79C8784220
:1010C200120109C004C005C006C007AC5DE41202EB
:1010D2001DD003D002D001D000120015AB17AA1602
:1010E200A915A8141201A6500FC292C2937FC87EFE
:1010F200001216D7D292D293E51B451A7003021042
:1011020067E4F51AF51BE525452470047F0180028A
:101112007F007524008F25E5254524600612118184
:1011220002106712186F12184E8F297541FF75420F
:10113200177543DB8529447B007A00792A120C0F4C
:101142007B007A00792A1217A4E52975F00A842413
:1011520030FD7F80121813E52975F00A84E5F0242A
:1011620030FD7F811218137D427F821218137D5049
:0F1172007F831218137D4D7F84121813021067AC
:1017B7007580FFC2A5D2A6D2A7AF80C2A7EF20E748
:0117C700F62B
:0117C80022FE
:1017EB00AE071217B7C2A5C2A68E80D2A7C2A72278
:1017FB00AE071217B7D2A5C2A68E80D2A7C2A72258
:10176A007F381217EB7F0C1217EB7F061217EB7FED
:04177A00010217EB66
:05186F007F010217EBF0
:08180B007F831218130D7FC347
:081813001217EBAF050217FBF1
:0A14C2008C538D548B558A568957C0
:1014CC00755C80EF64024E70067440255CF55CE43C
:1014DC00F55AF55BC3E55B9559E5586480F8E55A18
:1014EC006480985024E55C255B2554FFAB55AA56C7
:1014FC00A957855B82855A83120652FD1218130573
:09150C005BE55B70CF055A80CB52
:0115150022B3
:1016B9007D3312180B7FE87E031216D712186F7D3F
:0E16C9003512180B7FE87E031216D702186F39
:04177E00D290D291A2
:0E178200E4FFFE0FBF00010EEF640A4E70F58B
:011790002236
:0B185A0012177EC290121782C291226A
:0C183600C290D291121782D29002178249
:0C184200C290D291121782C291D2902263
:0600030012177EC29122DB
:0E181B0012177E309004C291C322C291D322D4
:02167900AD07BB
:10167B00E4FCED30E703D38001C39290ED25E0FD50
:0E168B00D291121782C2910CBC08E702181B04
:10169900E4FDD290FCD291121782ED25E0FD309045
:0F16A90003430501C2911217820CBC08E8AF057C
:0116B800220F
:10171000AB05AA0712185A7FD0121679AF0212161B
:0917200079AF03121679021836A4
:02165400AB07E2
:1016560012185A7FD0121679AF0312167912185A39
:101666007FD1121679121699AD0712000312183699
:02167600AF05BE
:01167800224F
:04170B00021A0000BE
:10174000759850438920758DFD858D8BD28ED2AFD3
:05175000C2ACD2992299
:10179100E4FE8F99209909EEC394FF50030E80F463
:0217A100C299EB
:0117A3002223
:1017A400120639FF600C121791740129F9E43AFA10
:0317B40080EE22A2
:10175500438901758A67758CFCD28CD2A9D2AFE416
:05176500F518F5192242
:03000B000215D605
:1015D600C0E0C0D075D000C006758A67758CFCE582
:1015E600191519AE18700215184E700B751803757B
:0E15F60019E8F51A751B01D006D0D0D0E032EE
:020009000000F5
:0F17C900C433333354804240D2A01217D8C2A089
:0317D800000022EC
:0A186500D2A21217D8C2A30217D8AE
:10159E00EF70027F02BF01027F03D2A01217D8C2E2
:1015AE00A0EF5402FEC31324FF92A21217D8D2A0AA
:1015BE001217D8C2A0EF1392A21217D8D2A01217E8
:0815CE00D8C2A0D2A20217D876
:10146200E4F53E783F7C00FD7BFF7A007909FE7F40
:1014720002120613E4FE1217D1FFA2A1E433423F87
:10148200E53F25E0F53F1217D10FBF07EDA2A1E41A
:1014920033423FA2A1E433FE1217C9E4FFE540C381
:1014A20013F540A2A1E433FE1217C90FBF07EED213
:0F14B200A3C2A0D2A1E53FB54003AF40227F0007
:0114C1002208
:0B184E00E4FE12186512159E121462D1
:01185900226C
:03187400DFFE2272
:1016D700D3EF9400EE940040147D6E7C00ED1D70F6
:0D16E700011CED4C70F7EF1F70E61E80E354
:0116F40022D3
:1016040053657474696E672074696D6500536574FD
:1016140074696E67204D656E75004C3A4F70742086
:09162400523A5375726500000092
:101181007F06121654EF5470C4540F75F00AA4FE72
:10119100EF540F2EF54175F00A842430FD7F801243
:1011A1001813E54175F00A84E5F02430FD7F8112C2
:1011B10018137F05121654EF5470C4540F75F00ABA
:1011C100A4FEEF540F2EF54275F00A842430FD7F02
:1011D10082121813E54275F00A84E5F02430FD7F90
:1011E100831218137F04121654EF5470C4540F75F0
:1011F100F00AA4FEEF540F2EF54375F00A84243053
:10120100FD7F84121813E54375F00A84E5F024305C
:10121100FD7F851218137F02121654EF5470C454C7
:101221000F75F00AA4FEEF540F2EF54075F00A84F5
:101231002430FD7F87121813E54075F00A84E5F02C
:101241002430FD7F881218137D3A7F891218137F8D
:1012510001121654EF5470C4540F75F00AA4FEEF36
:10126100540F2EF53F75F00A842430FD7F8A121841
:1012710013E53F75F00A84E5F02430FD7F8B1218E9
:10128100137D3A7F8C121813E4FF121654EF547039
:10129100C4540F75F00AA4FEEF540F2EF53E75F0FD
:1012A1000A842430FD7F8D121813E53E75F00A84FF
:0A12B100E5F02430FD7F8E021813D3
:1012BB008F3E8D3F8B40E53E75F00A842430FD7FD9
:1012CB00C0121813E53E75F00A84E5F02430FD7F5B
:1012DB00C11218137D2E7FC2121813E53F75F00A49
:1012EB00842430FD7FC3121813E53F75F00A84E5A3
:1012FB00F02430FD7FC41218137D257FC5121813FF
:10130B007D527FC61218137D487FC7121813E54014
:10131B0075F00A842430FD7FC9121813E54075F06F
:10132B000A84E5F02430FD7FCA1218137D2E7FCB83
:10133B00121813E54175F00A842430FD7FCC121886
:10134B0013E54175F00A84E5F02430FD7FCD1218CA
:08135B00137D437FCE0218133D
:1006D500784D7C007D007BFF7A16792B7E007F02AA
:1006E500120613E4F54FF5507BFF7A167904F55899
:1006F50075590C7D01FC7F01FE1214C27F0612168E
:10070500548F40E5405470C4540F75F00AA4FFE5BA
:1007150040540F2FF54975F00A842430FD7FC0122F
:100725001813E54975F00A84E5F02430FD7FC11200
:1007350018137F051216548F41E5415470C4540FA8
:1007450075F00AA4FFE541540F2FF54A75F00A84A8
:100755002430FD7FC2121813E54A75F00A84E5F0CE
:100765002430FD7FC31218137F041216548F42E5FF
:10077500425470C4540F75F00AA4FFE542540F2F7C
:10078500F54B75F00A842430FD7FC4121813E54B30
:1007950075F00A84E5F02430FD7FC51218137F0239
:1007A5001216548F43E5435470C4540F75F00AA4D0
:1007B500FFE543540F2FF54875F00A842430FD7F7B
:1007C500C7121813E54875F00A84E5F02430FD7F5B
:1007D500C81218137D3A7FC91218137F01121654D7
:1007E5008F44E5445470C4540F75F00AA4FFE544E2
:1007F500540F2FF54775F00A842430FD7FCA12186F
:1008050013E54775F00A84E5F02430FD7FCB121817
:10081500137D3A7FCC121813E4FF1216548F45024C
:100825000B8120954A7F647E001216D720954005DE
:1008350050E5507002054FD39405E54F64809480D0
:10084500402DAD407F06121710AD417F05121710E0
:10085500AD427F04121710AD437F02121710AD444D
:100865007F01121710AD45E4FF12171002186F3003
:100875009403020A127F647E001216D73094030295
:100885000A12E54F6003020A12E55014605A14700B
:100895000302092814700302096314700302099DF9
:1008A5001470030209D724056003020A121540E5F6
:1008B50040C394005003754063E5405470C4540F21
:1008C50075F00AA4FFE540540F2FF54975F00A8429
:1008D5002430FD7FC0121813E54975F00A84E5F050
:1008E5002430FD7FC1020A0F1541E541C394015033
:1008F5000375410CE5415470C4540F75F00AA4FF0B
:10090500E541540F2FF54A75F00A842430FD7FC266
:10091500121813E54A75F00A84E5F02430FD7FC30B
:10092500020A0F1542E542C39401500375421FE5C3
:10093500425470C4540F75F00AA4FFE542540F2FBA
:10094500F54B75F00A842430FD7FC4121813E54B6E
:1009550075F00A84E5F02430FD7FC5020A0F1543C2
:10096500E543C394005003754317E5435470C454DD
:100975000F75F00AA4FFE543540F2FF54875F00AEB
:10098500842430FD7FC7121813E54875F00A84E505
:10099500F02430FD7FC880721544E544C3940050AF
:1009A5000375443BE5445470C4540F75F00AA4FF25
:1009B500E544540F2FF54775F00A842430FD7FCAAE
:1009C500121813E54775F00A84E5F02430FD7FCB56
:1009D50080381545E545C39400500375453BE5450D
:1009E5005470C4540F75F00AA4FFE545540F2FF554
:1009F5004675F00A842430FD7FCD121813E546753F
:100A0500F00A84E5F02430FD7FCE121813309603EA
:100A15000208277F647E001216D730960302082746
:100A2500E54F6003020827E55014605A147003026D
:100A35000AC6147003020B01147003020B3B1470F9
:100A450003020B75240560030208270540E540D322
:100A550094634003E4F540E5405470C4540F75F0C9
:100A65000AA4FFE540540F2FF54975F00A84243098
:100A7500FD7FC0121813E54975F00A84E5F02430AE
:100A8500FD7FC1020BAD0541E541D3940C400375D3
:100A95004101E5415470C4540F75F00AA4FFE541C6
:100AA500540F2FF54A75F00A842430FD7FC21218C1
:100AB50013E54A75F00A84E5F02430FD7FC3020B87
:100AC500AD0542E542D3941F4003754201E542540A
:100AD50070C4540F75F00AA4FFE542540F2FF54B6F
:100AE50075F00A842430FD7FC4121813E54B75F0A8
:100AF5000A84E5F02430FD7FC5020BAD0543E543CF
:100B0500D394174003E4F543E5435470C4540F757B
:100B1500F00AA4FFE543540F2FF54B75F00A842422
:100B250030FD7FC7121813E54B75F00A84E5F024F4
:100B350030FD7FC880720544E544D3943B4003E40F
:100B4500F544E5445470C4540F75F00AA4FFE54418
:100B5500540F2FF54775F00A842430FD7FCA12180B
:100B650013E54775F00A84E5F02430FD7FCB803826
:100B75000545E545D3943B4003E4F545E54554700B
:100B8500C4540F75F00AA4FFE545540F2FF54675BB
:100B9500F00A842430FD7FCD121813E54675F00A5E
:0E0BA50084E5F02430FD7FCE121813020827DD
:10151600E4F53EF53F7BFF7A167911F55875590CBF
:101526007D01FC7F01FE1214C27BFF7A16791E75BF
:10153600580075590CE4FDFC7F02FE1214C27FE8C8
:101546007E031216D720960302186F2094F71218FE
:041556006F1206D535
:01155A00226E
:10172900D3EF9400EE9400400DE4FD0DBD1BFCEFDA
:061739001F70ED1E80EAA6
:01173F002287
:0C182900153E153E153E153E153E153EC1
:011835002290
:10155B00E4FF75610220A407AE610561EE70F6121F
:10156B001829121829121829E4F56430A40375649C
:10157B000175610230A407AE610561EE70F6E5619D
:10158B006401600EE56925E0F569E56442690FBF0A
:02159B0008C086
:01159D00222B
:1013EF00C2A47FB47E00121729D2A4121829121892
:1013FF0029121829121829D2A420A4567561022087
:10140F00A407AF610561EF70F675610230A407AFF5
:10141F00610561EF70F612155B85696712155B85C3
:10142F00696812155B85695F12155B856960121516
:10143F005B856963D2A4E55F256025672568F56440
:10144F00B5630F856765856866855F5D85605E85B9
:03145F00636222A3
:10000E00020286E86480F8E933E83360110460F098
:10001E00ED33EC337009E8FCE9FDEAFEEBFF220458
:10002E0060DED3EB9FEA9EE99DE8C2E78CF0C2F753
:10003E0095F0400CE8CCF8E9CDF9EACEFAEBCFFB1F
:10004E0012025185D0F05804700320D5B3E8047025
:10005E00075002B2D502029092D5EC0460F7E4CCC0
:10006E00C0E0C398F8603B94186008400DD0E0FBE8
:10007E00020268E4FBFAC9FC8028E830E406E4C911
:10008E00FBE4CAFCE830E305E4C9CACBFCE854073C
:10009E006010F8C3E913F9EA13FAEB13FBEC13FC47
:1000AE00D8F130F52FC3E49CFCEF9BFFEE9AFEEDEA
:1000BE0099FDD0E0FBEF4E4D4C701222DB03020295
:1000CE008DEC2CFCEF33FFEE33FEED33FDED30E720
:1000DE00EB020268EF2BFFEE3AFEED39FDD0E0FBAE
:1000EE0050130BBB0003020290ED13FDEE13FEEF57
:0800FE0013FFEC13FC02026881
:10010600020290EC5D046005E85904700302028661
:10011600120251580460F6EC4860F2EC7004FDFEE1
:10012600FF22C860DB2481C85009C39860025006CC
:1001360002028D9850CAF582E9294B4A7005AB82B6
:1001460002027C75F0007C1A7880C3EF9BEE9AED74
:1001560099400DC3EF9BFFEE9AFEED99FDE842F044
:10016600DC23ACF0D0E0FFD0E0FED0E0FDAB822097
:10017600E7101BEB60BAEC2CFCEF33FFEE33FEED21
:1001860033FD020268E803F830E705C0F075F000B9
:10019600EF2FFFEE33FEED33FD40B830E7C280AA05
:1001A60074F8CC6480CCC86480C8F582046043C30C
:1001B600EB9FF5F0EA9E42F0E99D42F0E89C45F09F
:1001C60060305018E5825FFFE582F42B5582FB50C4
:1001D600210ABA001D09B90019088016E5825BFBE1
:1001E600E582F42F5582FF50090EBE00050DBD00B5
:1001F600010CC3EB9FF5F0EA9E42F0E99D42F0E860
:0D0206009C45F06007CC4820E701B3EC22D6
:1002130075F020800E75F010800575F0087D007E66
:10022300007F003392D530D503120691EC33401092
:10023300EF33FFEE33FEED33FDEC33FCD5F0ED226F
:0E024300E5F0247EA2D513CC92E7CDCEFF22AB
:100BB300E5552441F8E6055522783E300702784191
:100BC300E475F00112069F0206392000EB7F2ED256
:100BD300008018EF540F2490D43440D4FF30040B1A
:100BE300EF24BFB41A0050032461FFE556600215D9
:100BF300560559E5597002055830070D783EE475DE
:100C0300F00112069FEF02067F02162D7403D2072E
:100C13008003E4C207F5558B3E8A3F8940E4F556CD
:100C2300F558F559E55660077F20120BEE80F575F0
:100C330057FFC201C200C202C203C205C206C208F4
:100C4300120BBCFF700D3007057F00120BFFAF596D
:100C5300AE5822B4255FC2D5C204120BBCFF24D008
:100C6300B40A00501A75F00A785630D50508B6FF55
:100C73000106C6A426F620D5047002D20380D92427
:100C8300CFB41A00EF5004C2E5D204020EECD20135
:100C930080C6D20080C0D20280BCD2D580BAD20531
:100CA30080B47F20120BEE2002077401B55600407A
:100CB300F1120BB3FF120BEE020C27D208D20680FF
:100CC30095120BB3FB120BB3FA120BB3F94A4B7029
:100CD3000679E37A0F7BFF20022EE556602A7E0019
:100CE3008E8275830012065260060EEE655770F011
:100CF300C2D5EBC0E0EAC0E0E9C0E0EE120F4CD091
:100D0300E0F9D0E0FAD0E0FB120639FF60AAEBC0AD
:100D1300E0EAC0E0E9C0E0120BEED0E02401F9D034
:100D2300E03400FAD0E0FBE5570460DCD557D98006
:100D330087D20280A2120F2F60F7E55770010412C9
:100D4300029BA957600DE557600914F557120FD69A
:100D5300EF60F3EA30E702F404C3995077EAF4252D
:100D6300570430E701E404F557800D120F2F60C1DB
:100D7300EA0557255712029BEA7854F630E701E457
:100D8300255704D5570420050114120F4CE4C0E085
:100D9300120FD67854E6601320E70714F6120BD629
:100DA300802204F6D0E014C0E07F00120BD6E55792
:100DB3006007120BCD1557800B300503120BCDD0F6
:100DC300E0020C27D0E00480C5120F2F60A0E55786
:100DD3000412029B7854EAF6E557200502600104E9
:050DE3002404120F4C76
:100DE80074FF04C0E0120FD6120BD6E55720050297
:100DF8006003120BCDD0E0B557E87F45120BE078C1
:100E080054E67F2B30E7047F2DF404C0E0120BEE8C
:100E1800D0E075F00A84C0F0120BD7D0E0120BD7DF
:100E2800020C27791080027908C206C2088008D20D
:100E3800D5790A8004790AC2D5E557047002F557B6
:100E4800E4FAFDFEFF120BB3FC7B08200113120B22
:100E5800B3FD7B1030000A120BB3FE120BB3FF7BFD
:100E680020EC3382D592D55013C3E43000069FFF9F
:100E7800E49EFEE42001039DFDE49CFCE4CBF8C263
:100E880001EC700CCFCECDCCE824F8F870F38017C5
:100E9800C3EF33FFEE33FEED33FDEC33FCEB33FBF6
:100EA800994002FB0FD8E9EB300105F8D0E0C448BF
:100EB800B201C0E00AEC4D4E4F78207B0070C2EAC8
:100EC800B5570040BCC0E0120F4ED0F0D0E0200172
:100ED80004C4C0E0C4B201C0F0120BD7D0F0D5F002
:100EE800EB020C271206AF0CC4530E2B580C954C72
:100EF8000C91420E2F4F0E37440E37490CAA430E61
:100F08003D550D6E460DCC450D38471003500C99D4
:100F18002D0C9D2E0CC02B0CA1230CBE200FEC2AEF
:100F28000C594800000CB8E557B4FF037557061272
:100F38000BB3FC120BB3FD120BB3FE120BB3FF780D
:100F48004D0202CA790AA2D5200314300509B91046
:100F5800020404B9080104A2D520060250010420A5
:100F680002689202B556005034C0E07F2030031961
:100F78007F30A20272067205500F120FA5C202C27C
:100F880006C205C2087F30800F300503E9C0E012B1
:100F98000BEE300503D0E0F9D0E0B556CC3005179C
:100FA8007F30B9100C120BEE7F583004077F788021
:100FB80003B90803120BEE3002057F2D020BEE7FFA
:100FC800202008F87F2B2006F322920280CF7F0092
:100FD800B407005005244DF8E6FF22286E756C6CA6
:100FE8002900D201120BB33001F8C201785630D56E
:100FF8000108F6020C592D50434958120BB324032B
:10100800B405004001E4900FFE93120BDF743A120E
:0A1018000BDFD203755604020E2B05
:10025100E9D2E7C933E833F892D5EDD2E7CD33ECF3
:0702610033FC5002B2D5226C
:10026800EC30E7100FBF000C0EBE00080DBD0004F7
:100278000BEB6014A2D5EB13FCED92E7FD2274FFA3
:10028800FCFDFEFF22E480F8A2D574FF13FC7D80FC
:03029800E480EF10
:10029B00F920E72824F950037907E4F42402FB182A
:1002AB00DBFDE624FB5014E9600DE4F618E604F6DA
:0F02BB00B40A08E4F6D9F57401F60A22C2D52276
:1002CA00ED33EC3392D5FA602AB4FF33EDC2E77B03
:1002DA00FF60067A0279EFE4227A0279F820D504DF
:1002EA007A0279F3224E614E002B494E46002D497F
:1002FA004E4600E47A08F608DAFC7B00740722E826
:10030A00C0E0ECC0E0EDC0E0EEC0E0EFC0E0EA75AE
:10031A00F010A4CAABF075F04DA42BFBE435F0FC49
:10032A00EA2410FAEB34C5FBEC34D9FCEDC2E7FF42
:10033A0075F056A4F42411C5F0F434C58FF0A42A3C
:10034A00E5F03BE43CF620E714120503D0E0FFD0C9
:10035A00E0FED0E0FDD0E0FC1201098014F40412A2
:10036A000503D0E0FFD0E0FED0E0FDD0E0FC1203B0
:10037A00CDD0E0F8E6FAEDD2E7CD33EC332482FBB8
:10038A00E4C3CF33CFCE33CECD33CD33DBF37B07CC
:10039A0075F00A846004F6081B0AE5F0F6088FF087
:1003AA00740AA4FFACF08EF0740AA42CFEACF050D0
:1003BA00010C8DF0740AA42CFDE435F0F608DBDE9E
:0303CA0074072293
:1003CD00EC4D6011E8497017ED33EC3304600DE42A
:1003DD00FCFFFEFD22E933E8330470F802028612B9
:1003ED00025158046009E4CC2481500628500902BA
:1003FD00029028400302028DC0E0EB4A7044B980A0
:10040D0006D0E0FB02027CEF4E701CBD8008EBFFB6
:10041D00EAFEE9FD80EBE98DF0A4FEE5F00204B6FD
:10042D00E9CDF9EAFEEBFFEF89F0A4FCE5F0CE890A
:10043D00F0A42EFFE435F0CD89F0A42DFEE435F0C7
:10044D008067EF4E7005BD80D780C3EF8BF0A4ACF5
:10045D00F0EE8BF0A42CFCE435F0F8EF8AF0A42C30
:10046D00E5F038FCE433CB8DF0A42CFCE5F03BF843
:10047D00EE8AF0A42CFCE5F038F8E433CF89F0A433
:10048D002CFCE5F038CF3400CE89F0A42FFFE5F039
:10049D003EFEE433C98DF0A42EFEE5F039CD8AF091
:1004AD00A42FFFE5F03EFEE43DFD33D0E0FB500709
:1004BD000BBB000F020290EC2CFCEF33FFEE33FE72
:0604CD00ED33FD020268A0
:1004D3003F8000004120000042C80000447A000031
:1004E300461C400047C35000497424004B189680B3
:1004F3004CBEBC205A0E1BCA6753C21C749DC5AEAA
:10050300FB60065407601C2323120531EB5438604B
:100513000912051D12052C1203CDECF8EDF9EEFAC4
:10052300EFCB22EB12052C80F1543803241C9004EA
:10053300D3FE93FC0EEE93FD0EEE930ECE93FF22AD
:0300000002136385
:0C136300787FE4F6D8FD7581690213AABA
:10054300E709F608DFFA8046E709F208DFFA803E9A
:1005530088828C83E709F0A3DFFA8032E309F60887
:10056300DFFA8078E309F208DFFA807088828C83EF
:10057300E309F0A3DFFA806489828A83E0A3F608A3
:10058300DFFA805889828A83E0A3F208DFFA804C7D
:1005930080D280FA80C680D4806980F28033801054
:1005A30080A680EA809A80A880DA80E280CA8033BD
:1005B30089828A83ECFAE493A3C8C582C8CCC58335
:1005C300CCF0A3C8C582C8CCC583CCDFE9DEE78005
:1005D3000D89828A83E493A3F608DFF9ECFAA9F084
:1005E300EDFB2289828A83ECFAE0A3C8C582C8CCDA
:1005F300C583CCF0A3C8C582C8CCC583CCDFEADEF3
:10060300E880DB89828A83E493A3F208DFF980CC54
:1006130088F0EF60010E4E60C388F0ED2402B4044D
:100623000050B9F582EB2402B4040050AF232345F4
:0606330082239005937381
:10063900BB010689828A83E0225002E722BBFE02BF
:09064900E32289828A83E49322F2
:10065200BB010CE58229F582E5833AF583E022505D
:1006620006E92582F8E622BBFE06E92582F8E222A7
:0D067200E58229F582E5833AF583E49322C1
:10067F00BB010689828A83F0225002F722BBFE015A
:02068F00F32254
:0E069100C3E49FFFE49EFEE49DFDE49CFC227A
:10069F00FAE6FB0808E6F925F0F618E6CA3AF6225C
:1006AF00D083D082F8E4937012740193700DA3A3DA
:1006BF0093F8740193F5828883E4737402936860EE
:0606CF00EFA3A3A380DFEE
:10162D00EFB40A07740D121638740A309811A89980
:10163D00B8130CC2983098FDA899C298B811F6301D
:07164D0099FDC299F59922F5
:10136F00021022E493A3F8E493A34003F68001F262
:10137F0008DFF48029E493A3F85407240CC8C3337F
:10138F00C4540F4420C8834004F456800146F6DF4E
:10139F00E4800B01020408102040809016F5E47ED3
:1013AF00019360BCA3FF543F30E509541FFEE49343
:1013BF00A360010ECF54C025E060A840B8E493A30A
:1013CF00FAE493A3F8E493A3C8C582C8CAC583CA35
:1013DF00F0A3C8C582C8CAC583CADFE9DEE780BEED
:01170F0000D9
:00000001FF
