:0A06AA00081554657374204F4B00CF
:10044500E4F524F52512061C1206431207031206CD
:1004550007E4FDFF1205D77D307F011205D77D1218
:100465007F021205D77D037F031205D77D017F0427
:100475001205D77D017F051205D77D177F06120569
:08048500D72095FDC29380F918
:100656007580FFC2A5D2A6D2A7AF80C2A7EF20E7BA
:01066600F69D
:010667002270
:10067A00AE07120656C2A5C2A68E80D2A7C2A7226C
:10068A00AE07120656D2A5C2A68E80D2A7C2A7224C
:10061C007F3812067A7F0C12067A7F0612067A7FD2
:04062C000102067A47
:05070D007F0102067AE5
:08069A007F831206A20D7FC34D
:0806A20012067AAF0502068A78
:10059B007D3312069A7FE87E031205B912070D7D93
:0E05AB003512069A7FE87E031205B902070D8D
:04063000D290D29101
:0E063400E4FFFE0FBF00010EEF640A4E70F5EA
:010642002295
:0B06F800120630C290120634C291229C
:0C06D400C290D291120634D2900206347B
:0C06E000C290D291120634C291D2902236
:06000300120630C291223A
:0E06B900120630309004C291C322C291D322A7
:02055B00AD07EA
:10055D00E4FCED30E703D38001C39290ED25E0FD7F
:0E056D00D291120634C2910CBC08E70206B906
:10057B00E4FDD290FCD291120634ED25E0FD3090D3
:0F058B0003430501C2911206340CBC08E8AF050A
:01059A00223E
:1005D700AB05AA071206F87FD012055BAF0212051A
:0905E7005BAF0312055B0206D4B0
:02053600AB0711
:100538001206F87FD012055BAF0312055B1206F8AE
:100548007FD112055B12057BAD071200031206D49A
:02055800AF05ED
:01055A00227E
:0406B400022B000015
:10064300438920758DFD758BFDD28E759850D2AC84
:03065300D2AF2201
:10060700758901758A67758CFCD28CD2A9D2AFE443
:05061700F529F52A227F
:03000B00020508E3
:10050800C0E0C0D075D000C006758A67758CFCE560
:100518002A152AAE29700215294E700B7529037504
:0E0528002AE8F52B752C01D006D0D0D0E03299
:020009000000F5
:0F066800C433333354804233D2A0120677C2A07A
:030677000000225E
:0A070300D2A2120677C2A302067705
:1004D000EF70027F02BF01027F03D2A0120677C233
:1004E000A0EF5402FEC31324FF92A2120677D2A0FB
:1004F000120677C2A0EF1392A2120677D2A01206BC
:0805000077C2A0D2A202067727
:1003E500E4F53178327C00FD7BFF7A007909FE7FE8
:1003F50002120218E4FE120670FFA2A1E433423293
:10040500E53225E0F5321206700FBF07EDA2A1E433
:10041500334232A2A1E433FE120668E4FFE533C39A
:1004250013F533A2A1E433FE1206680FBF07EED21F
:0F043500A3C2A0D2A1E532B53303AF33227F00BB
:010444002295
:0B06EC00E4FE1207031204D01203E525
:0106F70022E0
:03071200DFFE22E5
:1005B900D3EF9400EE940040147D6E7C00ED1D7025
:0D05C900011CED4C70F7EF1F70E61E80E383
:0105D6002202
:10000E007F06120536EF5470C4540F75F00AA4FE25
:10001E00EF540F2EF52075F00A842430FD7F8012E8
:10002E0006A2E52075F00A84E5F02430FD7F8112EA
:10003E0006A27F05120536EF5470C4540F75F00AF0
:10004E00A4FEEF540F2EF52175F00A842430FD7FA7
:10005E00821206A2E52175F00A84E5F02430FD7FB8
:10006E00831206A27F04120536EF5470C4540F7526
:10007E00F00AA4FEEF540F2EF52275F00A842430F8
:10008E00FD7F841206A2E52275F00A84E5F0243085
:10009E00FD7F851206A27F02120536EF5470C454FE
:1000AE000F75F00AA4FEEF540F2EF51F75F00A849B
:1000BE002430FD7F871206A2E51F75F00A84E5F055
:1000CE002430FD7F881206A27D3A7F891206A27F18
:1000DE0001120536EF5470C4540F75F00AA4FEEFEA
:1000EE00540F2EF51E75F00A842430FD7F8A1206F9
:1000FE00A2E51E75F00A84E5F02430FD7F8B120612
:10010E00A27D3A7F8C1206A2E4FF120536EF5470E0
:10011E00C4540F75F00AA4FEEF540F2EF51D75F0A2
:10012E000A842430FD7F8D1206A2E51D75F00A8427
:0A013E00E5F02430FD7F8E0206A2DA
:10023E008F2D8D2E8B2FE52D75F00A842430FD7FAA
:10024E00C01206A2E52D75F00A84E5F02430FD7F7C
:10025E00C11206A27D2E7FC21206A2E52E75F00AED
:10026E00842430FD7FC31206A2E52E75F00A84E5C4
:10027E00F02430FD7FC41206A27D257FC51206A292
:10028E007D527FC61206A27D487FC71206A2E52FB9
:10029E0075F00A842430FD7FC91206A2E52F75F091
:1002AE000A84E5F02430FD7FCA1206A27D2E7FCB94
:1002BE001206A2E53075F00A842430FD7FCC1206BA
:1002CE00A2E53075F00A84E5F02430FD7FCD1206EC
:0802DE00A27D437FCE0206A2BF
:1005F000D3EF9400EE9400400DE4FD0DBD1BFCEF25
:060600001F70ED1E80EAF0
:0106060022D1
:0C06C70015341534153415341534153471
:0106D3002204
:10048D00E4FF750C0220A407AE0C050CEE70F612FD
:10049D0006C71206C71206C7E4F50F30A403750F81
:1004AD0001750C0230A407AE0C050CEE70F6E50CD0
:1004BD006401600EE51425E0F514E50F42140FBF3D
:0204CD0008C065
:0104CF00220A
:10037200C2A47FB47E001205F0D2A41206C71206F0
:10038200C71206C71206C7D2A420A456750C0220B3
:10039200A407AF0C050CEF70F6750C0230A407AF82
:1003A2000C050CEF70F612048D85141212048D8563
:1003B200141312048D85140A12048D85140B120471
:1003C2008D85140ED2A4E50A250B25122513F50FEF
:1003D200B50E0F851210851311850A08850B098544
:0303E2000E0D22DB
:030000000202E613
:0C02E600787FE4F6D8FD75813402032D0A
:10014800E709F608DFFA8046E709F208DFFA803E99
:1001580088828C83E709F0A3DFFA8032E309F60886
:10016800DFFA8078E309F208DFFA807088828C83EE
:10017800E309F0A3DFFA806489828A83E0A3F608A2
:10018800DFFA805889828A83E0A3F208DFFA804C7C
:1001980080D280FA80C680D4806980F28033801053
:1001A80080A680EA809A80A880DA80E280CA8033BC
:1001B80089828A83ECFAE493A3C8C582C8CCC58334
:1001C800CCF0A3C8C582C8CCC583CCDFE9DEE78004
:1001D8000D89828A83E493A3F608DFF9ECFAA9F083
:1001E800EDFB2289828A83ECFAE0A3C8C582C8CCD9
:1001F800C583CCF0A3C8C582C8CCC583CCDFEADEF2
:10020800E880DB89828A83E493A3F208DFF980CC53
:1002180088F0EF60010E4E60C388F0ED2402B4044C
:100228000050B9F582EB2402B4040050AF232345F3
:060238008223900198737F
:1002F200020445E493A3F8E493A34003F68001F2D9
:1003020008DFF48029E493A3F85407240CC8C3330C
:10031200C4540F4420C8834004F456800146F6DFDB
:10032200E4800B01020408102040809006AAE47EBB
:10033200019360BCA3FF543F30E509541FFEE493D0
:10034200A360010ECF54C025E060A840B8E493A397
:10035200FAE493A3F8E493A3C8C582C8CAC583CAC2
:10036200F0A3C8C582C8CAC583CADFE9DEE780BE7A
:0106B8000041
:00000001FF
