:0807DE0068656C6C6F0D0A00E8
:0A07BE00082254657374204F4B00AD
:1006FD001207111206E87BFF7A0779DE12006512E8
:04070D00069380FBD4
:100738007580FFC2A5D2A6D2A7AF80C2A7EF20E7D7
:01074800F6BA
:01074900228D
:10075C00AE07120738C2A5C2A68E80D2A7C2A722A6
:10076C00AE07120738D2A5C2A68E80D2A7C2A72286
:100711007F3812075C7F0C12075C7F0612075C7F33
:040721000102075C6E
:0507EC007F0102075C23
:08077C007F831207840D7FC387
:0807840012075CAF0502076CCF
:100693007D3312077C7FE87E031206B11207EC7DDF
:0E06A3003512077C7FE87E031206B10207ECD9
:04072500D290D2910B
:0E072900E4FFFE0FBF00010EEF640A4E70F5F4
:01073700229F
:0B07C900120725C290120729C29122DE
:0C079A00C290D291120729D290020729C8
:0C07A600C290D291120729C291D2902279
:0607E600120725C291225A
:0E078C00120725309004C291C322C291D322DD
:02065300AD07F1
:10065500E4FCED30E703D38001C39290ED25E0FD86
:0E066500D291120729C2910CBC08E702078C43
:10067300E4FDD290FCD291120729ED25E0FD3090E4
:0F06830003430501C2911207290CBC08E8AF051B
:010692002245
:1006CF00AB05AA071207C97FD0120653AF02120655
:0906DF0053AF0312065302079AFF
:02062E00AB0718
:100630001207C97FD0120653AF031206531207C91F
:100640007FD1120653120673AD071207E612079AFE
:02065000AF05F4
:010652002285
:1006E800758920758DFD758BFDD28E759850D2ACAD
:0506F800D2AFD29922EF
:0207F400000003
:0F074A00C43333335480422CD2A0120759C2A0BB
:030759000000227B
:0A07D400D2A2120759C2A30207596E
:1005CF00EF70027F02BF01027F03D2A0120759C250
:1005DF00A0EF5402FEC31324FF92A2120759D2A018
:1005EF00120759C2A0EF1392A2120759D2A01207F5
:0805FF0059C2A0D2A202075963
:10056F00E4F52A782B7C00FD7BFF7A0779F4FE7F78
:10057F000212042FE4FE120752FFA2A1E433422B12
:10058F00E52B25E0F52B1207520FBF07EDA2A1E4D3
:10059F0033422BA2A1E433FE12074AE4FFE52CC33A
:1005AF0013F52CA2A1E433FE12074A0FBF07EED2B8
:0F05BF00A3C2A0D2A1E52BB52C03AF2C227F0045
:0105CE00220A
:0B07B200E4FE1207D41205CF12056F01
:0107BD002219
:0307F100DFFE2206
:1006B100D3EF9400EE940040147D6E7C00ED1D702C
:0D06C100011CED4C70F7EF1F70E61E80E38A
:0106CE002209
:030000000204E314
:0C04E300787FE4F6D8FD75812C02052A14
:10035F00E709F608DFFA8046E709F208DFFA803E80
:10036F0088828C83E709F0A3DFFA8032E309F6086D
:10037F00DFFA8078E309F208DFFA807088828C83D5
:10038F00E309F0A3DFFA806489828A83E0A3F60889
:10039F00DFFA805889828A83E0A3F208DFFA804C63
:1003AF0080D280FA80C680D4806980F2803380103A
:1003BF0080A680EA809A80A880DA80E280CA8033A3
:1003CF0089828A83ECFAE493A3C8C582C8CCC5831B
:1003DF00CCF0A3C8C582C8CCC583CCDFE9DEE780EB
:1003EF000D89828A83E493A3F608DFF9ECFAA9F06A
:1003FF00EDFB2289828A83ECFAE0A3C8C582C8CCC0
:10040F00C583CCF0A3C8C582C8CCC583CCDFEADED8
:10041F00E880DB89828A83E493A3F208DFF980CC3A
:10042F0088F0EF60010E4E60C388F0ED2402B40433
:10043F000050B9F582EB2402B4040050AF232345DA
:06044F0082239003AF734D
:10000300E51B240FF8E6051B22780C300702780F56
:10001300E475F0011204AD0204552000EB7F2ED2EB
:10002300008018EF540F2490D43440D4FF30040BD5
:10003300EF24BFB41A0050032461FFE51C600215CE
:100043001C051FE51F7002051E30070D780CE475B3
:10005300F0011204ADEF02049B0206077403D207FA
:100063008003E4C207F51B8B0C8A0D890EE4F51C93
:10007300F51EF51FE51C60077F2012003E80F57515
:100083001DFFC201C200C202C203C205C206C208EA
:1000930012000CFF700D3007057F0012004FAF1FD9
:1000A300AE1E22B4255FC2D5C20412000CFF24D0B9
:1000B300B40A00501A75F00A781C30D50508B6FF4B
:1000C3000106C6A426F620D5047002D20380D924E3
:1000D300CFB41A00EF5004C2E5D20402024FD2019A
:1000E30080C6D20080C0D20280BCD2D580BAD205ED
:1000F30080B47F2012003E2002077401B51C00402B
:10010300F1120003FF12003E020077D208D20680EC
:1001130095120003FB120003FA120003F94A4B7015
:100123000679207A037BFF20022EE51C602A7E00DD
:100133008E8275830012046E60060EEE651D70F0EC
:10014300C2D5EBC0E0EAC0E0E9C0E0EE120296D00F
:10015300E0F9D0E0FAD0E0FB120455FF60AAEBC04F
:10016300E0EAC0E0E9C0E012003ED0E02401F9D0AB
:10017300E03400FAD0E0FBE51D0460DCD51DD98036
:10018300877BFF7A027992D202809C791080027970
:1001930008C206C2088008D2D5790A8004790AC247
:1001A300D5E51D047002F51DE4FAFDFEFF12000300
:1001B300FC7B08200113120003FD7B1030000A12A0
:1001C3000003FE120003FF7B20EC3382D592D5504F
:1001D30013C3E43000069FFFE49EFEE42001039D69
:1001E300FDE49CFCE4CBF8C201EC700CCFCECDCC8B
:1001F300E824F8F870F38017C3EF33FFEE33FEED16
:1002030033FDEC33FCEB33FB994002FB0FD8E9EBF6
:10021300300105F8D0E0C448B201C0E00AEC4D4E0D
:100223004F78207B0070C2EAB51D0040BCC0E012CD
:100233000298D0F0D0E0200104C4C0E0C4B201C0F1
:10024300F0120027D0F0D5F0EB0200771204BD01C5
:100253001453018E5800E54C00E14201924F019A7C
:0F02630044019A4900FA4301A0550184460184E1
:100272004501844703405000E92D00ED2E01102B6B
:1002820000F123010E2003292A00A94800000108D9
:100292003F3F3F00790AA2D5200314300509B91067
:1002A200020404B9080104A2D52006025001042068
:1002B20002689202B51C005034C0E07F203003195E
:1002C2007F30A20272067205500F1202EFC202C202
:1002D20006C205C2087F30800F300503E9C0E01274
:1002E200003E300503D0E0F9D0E0B51CCC30051754
:1002F2007F30B9100C12003E7F583004077F78809F
:1003020003B9080312003E3002057F2D02003E7F32
:10031200202008F87F2B2006F322920280CF286E3D
:10032200756C6C2900D2011200033001F8C2017809
:100332001C30D50108F60200A92D5043495812007D
:10034200032403B405004001E490033B9312002F01
:0D035200743A12002FD203751C0402018EB4
:1004EF000206FDE493A3F8E493A34003F68001F220
:1004FF0008DFF48029E493A3F85407240CC8C3330E
:10050F00C4540F4420C8834004F456800146F6DFDC
:10051F00E4800B01020408102040809007BEE47EA7
:10052F00019360BCA3FF543F30E509541FFEE493D1
:10053F00A360010ECF54C025E060A840B8E493A398
:10054F00FAE493A3F8E493A3C8C582C8CAC583CAC3
:10055F00F0A3C8C582C8CAC583CADFE9DEE780BE7B
:0107C8000030
:10045500BB010689828A83E0225002E722BBFE02A5
:09046500E32289828A83E49322D8
:10046E00BB010CE58229F582E5833AF583E0225043
:10047E0006E92582F8E622BBFE06E92582F8E2228D
:0D048E00E58229F582E5833AF583E49322A7
:10049B00BB010689828A83F0225002F722BBFE0140
:0204AB00F3223A
:1004AD00FAE6FB0808E6F925F0F618E6CA3AF62250
:1004BD00D083D082F8E4937012740193700DA3A3CE
:1004CD0093F8740193F5828883E4737402936860E2
:0604DD00EFA3A3A380DFE2
:10060700EFB40A07740D120612740A309811A899EC
:10061700B8130CC2983098FDA899C298B811F63053
:0706270099FDC299F599222B
:00000001FF
