:0A06C200082154657374204F4B00AB
:1003E500E4F515F51612063412065B12071B120604
:1003F5001FE4FDFF1205EF7D307F011205EF7D1231
:100405007F021205EF7D037F031205EF7D017F0457
:100415001205EF7D017F051205EF7D177F06120599
:10042500EF12037285081DAB08AD11AF1012023E25
:10043500E52C452B60EBE4F52BF52C12000E80E145
:10066E007580FFC2A5D2A6D2A7AF80C2A7EF20E7A2
:01067E00F685
:01067F002258
:10069200AE0712066EC2A5C2A68E80D2A7C2A7223C
:1006A200AE0712066ED2A5C2A68E80D2A7C2A7221C
:100634007F381206927F0C1206927F061206927F72
:040644000102069217
:050725007F01020692B5
:0806B2007F831206BA0D7FC31D
:0806BA00120692AF050206A230
:1005B3007D331206B27FE87E031205D11207257D33
:0E05C300351206B27FE87E031205D10207252D
:04064800D290D291E9
:0E064C00E4FFFE0FBF00010EEF640A4E70F5D2
:01065A00227D
:0B071000120648C29012064CC2912253
:0C06EC00C290D29112064CD29002064C33
:0C06F800C290D29112064CC291D2902206
:06000300120648C2912222
:0E06D100120648309004C291C322C291D32277
:02057300AD07D2
:10057500E4FCED30E703D38001C39290ED25E0FD67
:0E058500D29112064CC2910CBC08E70206D1BE
:10059300E4FDD290FCD29112064CED25E0FD3090A3
:0F05A30003430501C29112064C0CBC08E8AF05DA
:0105B2002226
:1005EF00AB05AA071207107FD0120573AF021205D1
:0905FF0073AF031205730206EC50
:02054E00AB07F9
:100550001207107FD0120573AF0312057312071034
:100560007FD1120573120593AD071200031206EC3A
:02057000AF05D5
:010572002266
:0406CC00022B0000FD
:10065B00438920758DFD758BFDD28E759850D2AC6C
:03066B00D2AF22E9
:10061F00758901758A67758CFCD28CD2A9D2AFE42B
:05062F00F529F52A2267
:03000B00020520CB
:10052000C0E0C0D075D000C006758A67758CFCE548
:100530002A152AAE29700215294E700B75290375EC
:0E0540002AE8F52B752C01D006D0D0D0E03281
:020009000000F5
:0F068000C43333335480422FD2A012068FC2A04E
:03068F0000002246
:0A071B00D2A212068FC2A302068FBD
:1004E800EF70027F02BF01027F03D2A012068FC203
:1004F800A0EF5402FEC31324FF92A212068FD2A0CB
:1005080012068FC2A0EF1392A212068FD2A0120673
:080518008FC2A0D2A202068FDF
:10044500E4F52D782E7C00FD7BFF7A007909FE7F8F
:1004550002120218E4FE120688FFA2A1E433422E1E
:10046500E52E25E0F52E1206880FBF07EDA2A1E4C3
:1004750033422EA2A1E433FE120680E4FFE52FC32A
:1004850013F52FA2A1E433FE1206800FBF07EED2AB
:0F049500A3C2A0D2A1E52EB52F03AF2F227F0067
:0104A4002235
:0B070400E4FE12071B1204E81204457B
:01070F0022C7
:03072A00DFFE22CD
:1005D100D3EF9400EE940040147D6E7C00ED1D700D
:0D05E100011CED4C70F7EF1F70E61E80E36B
:0105EE0022EA
:10000E007F0612054EEF5470C4540F75F00AA4FE0D
:10001E00EF540F2EF51D75F00A842430FD7F8012EB
:10002E0006BAE51D75F00A84E5F02430FD7F8112D5
:10003E0006BA7F0512054EEF5470C4540F75F00AC0
:10004E00A4FEEF540F2EF51E75F00A842430FD7FAA
:10005E00821206BAE51E75F00A84E5F02430FD7FA3
:10006E00831206BA7F0412054EEF5470C4540F75F6
:10007E00F00AA4FEEF540F2EF51F75F00A842430FB
:10008E00FD7F841206BAE51F75F00A84E5F0243070
:10009E00FD7F851206BA7F0212054EEF5470C454CE
:1000AE000F75F00AA4FEEF540F2EF51C75F00A849E
:1000BE002430FD7F871206BAE51C75F00A84E5F040
:1000CE002430FD7F881206BA7D3A7F891206BA7FE8
:1000DE000112054EEF5470C4540F75F00AA4FEEFD2
:1000EE00540F2EF51B75F00A842430FD7F8A1206FC
:1000FE00BAE51B75F00A84E5F02430FD7F8B1206FD
:10010E00BA7D3A7F8C1206BAE4FF12054EEF547098
:10011E00C4540F75F00AA4FEEF540F2EF51A75F0A5
:10012E000A842430FD7F8D1206BAE51A75F00A8412
:0A013E00E5F02430FD7F8E0206BAC2
:10023E008F1A8D1B8B1CE51A75F00A842430FD7FF6
:10024E00C01206BAE51A75F00A84E5F02430FD7F77
:10025E00C11206BA7D2E7FC21206BAE51B75F00AD0
:10026E00842430FD7FC31206BAE51B75F00A84E5BF
:10027E00F02430FD7FC41206BA7D257FC51206BA62
:10028E007D527FC61206BA7D487FC71206BAE51C9C
:10029E0075F00A842430FD7FC91206BAE51C75F08C
:1002AE000A84E5F02430FD7FCA1206BA7D2E7FCB7C
:1002BE001206BAE51D75F00A842430FD7FCC1206B5
:1002CE00BAE51D75F00A84E5F02430FD7FCD1206E7
:0802DE00BA7D437FCE0206BA8F
:10060800D3EF9400EE9400400DE4FD0DBD1BFCEF0C
:060618001F70ED1E80EAD8
:01061E0022B9
:0C06DF00151A151A151A151A151A151AF5
:0106EB0022EC
:1004A500E4FF750C0220A407AE0C050CEE70F612E5
:1004B50006DF1206DF1206DFE4F50F30A403750F21
:1004C50001750C0230A407AE0C050CEE70F6E50CB8
:1004D5006401600EE51425E0F514E50F42140FBF25
:0204E50008C04D
:0104E70022F2
:10037200C2A47FB47E00120608D2A41206DF1206BF
:10038200DF1206DF1206DFD2A420A456750C02206B
:10039200A407AF0C050CEF70F6750C0230A407AF82
:1003A2000C050CEF70F61204A58514121204A58533
:1003B20014131204A585140A1204A585140B120441
:1003C200A585140ED2A4E50A250B25122513F50FD7
:1003D200B50E0F851210851311850A08850B098544
:0303E2000E0D22DB
:030000000202E613
:0C02E600787FE4F6D8FD75812F02032D0F
:10014800E709F608DFFA8046E709F208DFFA803E99
:1001580088828C83E709F0A3DFFA8032E309F60886
:10016800DFFA8078E309F208DFFA807088828C83EE
:10017800E309F0A3DFFA806489828A83E0A3F608A2
:10018800DFFA805889828A83E0A3F208DFFA804C7C
:1001980080D280FA80C680D4806980F28033801053
:1001A80080A680EA809A80A880DA80E280CA8033BC
:1001B80089828A83ECFAE493A3C8C582C8CCC58334
:1001C800CCF0A3C8C582C8CCC583CCDFE9DEE78004
:1001D8000D89828A83E493A3F608DFF9ECFAA9F083
:1001E800EDFB2289828A83ECFAE0A3C8C582C8CCD9
:1001F800C583CCF0A3C8C582C8CCC583CCDFEADEF2
:10020800E880DB89828A83E493A3F208DFF980CC53
:1002180088F0EF60010E4E60C388F0ED2402B4044C
:100228000050B9F582EB2402B4040050AF232345F3
:060238008223900198737F
:1002F2000203E5E493A3F8E493A34003F68001F23A
:1003020008DFF48029E493A3F85407240CC8C3330C
:10031200C4540F4420C8834004F456800146F6DFDB
:10032200E4800B01020408102040809006C2E47EA3
:10033200019360BCA3FF543F30E509541FFEE493D0
:10034200A360010ECF54C025E060A840B8E493A397
:10035200FAE493A3F8E493A3C8C582C8CAC583CAC2
:10036200F0A3C8C582C8CAC583CADFE9DEE780BE7A
:0106D0000029
:00000001FF
