:07060500253032780D0A00D8
:0A05DB00082254657374204F4B0092
:1004790012055B12058DE4FDFF1205747D307F01C5
:100489001205747D127F02120574E4FF1204F68FBF
:0C0499000F7BFF7A06790512006580EEEB
:1004A500C2A68F807F017E001204B6D2A77F057E8B
:0104B5000046
:1004B600D3EF9400EE9400400F7DC77C01DCFEDD97
:0804C600FAEF1F70EB1E80E845
:0104CE00220B
:0A05F100C2A7C2A51204A5C2A722EA
:0A05FB00C2A7D2A51204A5C2A722D0
:10055B007F381205F17F0C1205F17F061205F17F32
:09056B00011205F17F800205F187
:0405A200D290D29190
:0E05A600E4FFFE0FBF00010EEF640A4E70F579
:0105B4002224
:0B05E6001205A2C2901205A6C29122CD
:0C05C300C290D2911205A6D2900205A6AB
:0C05CF00C290D2911205A6C291D29022D7
:06060C001205A2C29122BA
:0E05B5001205A2309004C291C322C291D3223B
:02051B00AD072A
:10051D00E4FCED30E703D38001C39290ED25E0FDBF
:0E052D00D2911205A6C2910CBC08E70205B5DA
:10053B00E4FDD290FCD2911205A6ED25E0FD3090A2
:0F054B0003430501C2911205A60CBC08E8AF05D9
:01055A00227E
:10057400AB05AA071205E67FD012051BAF021205D0
:090584001BAF0312051B0205C3A5
:0204F600AB0752
:1004F8001205E67FD012051BAF0312051B1205E695
:100508007FD112051B12053BAD0712060C1205C35D
:02051800AF052D
:01051A0022BE
:10058D00758920758DFD758BFDD28E759850D2AC09
:05059D00D2AFD299224B
:030000000203ED0B
:0C03ED00787FE4F6D8FD75812902043405
:10000300E51B240FF8E6051B22780C300702780F56
:10001300E475F0011203B702035F2000EB7F2ED2D9
:10002300008018EF540F2490D43440D4FF30040BD5
:10003300EF24BFB41A0050032461FFE51C600215CE
:100043001C051FE51F7002051E30070D780CE475B3
:10005300F0011203B7EF0203A50204CF7403D20722
:100063008003E4C207F51B8B0C8A0D890EE4F51C93
:10007300F51EF51FE51C60077F2012003E80F57515
:100083001DFFC201C200C202C203C205C206C208EA
:1000930012000CFF700D3007057F0012004FAF1FD9
:1000A300AE1E22B4255FC2D5C20412000CFF24D0B9
:1000B300B40A00501A75F00A781C30D50508B6FF4B
:1000C3000106C6A426F620D5047002D20380D924E3
:1000D300CFB41A00EF5004C2E5D20402024FD2019A
:1000E30080C6D20080C0D20280BCD2D580BAD205ED
:1000F30080B47F2012003E2002077401B51C00402B
:10010300F1120003FF12003E020077D208D20680EC
:1001130095120003FB120003FA120003F94A4B7015
:100123000679207A037BFF20022EE51C602A7E00DD
:100133008E8275830012037860060EEE651D70F0E3
:10014300C2D5EBC0E0EAC0E0E9C0E0EE120296D00F
:10015300E0F9D0E0FAD0E0FB12035FFF60AAEBC046
:10016300E0EAC0E0E9C0E012003ED0E02401F9D0AB
:10017300E03400FAD0E0FBE51D0460DCD51DD98036
:10018300877BFF7A027992D202809C791080027970
:1001930008C206C2088008D2D5790A8004790AC247
:1001A300D5E51D047002F51DE4FAFDFEFF12000300
:1001B300FC7B08200113120003FD7B1030000A12A0
:1001C3000003FE120003FF7B20EC3382D592D5504F
:1001D30013C3E43000069FFFE49EFEE42001039D69
:1001E300FDE49CFCE4CBF8C201EC700CCFCECDCC8B
:1001F300E824F8F870F38017C3EF33FFEE33FEED16
:1002030033FDEC33FCEB33FB994002FB0FD8E9EBF6
:10021300300105F8D0E0C448B201C0E00AEC4D4E0D
:100223004F78207B0070C2EAB51D0040BCC0E012CD
:100233000298D0F0D0E0200104C4C0E0C4B201C0F1
:10024300F0120027D0F0D5F0EB0200771203C701BC
:100253001453018E5800E54C00E14201924F019A7C
:0F02630044019A4900FA4301A0550184460184E1
:100272004501844703405000E92D00ED2E01102B6B
:1002820000F123010E2003292A00A94800000108D9
:100292003F3F3F00790AA2D5200314300509B91067
:1002A200020404B9080104A2D52006025001042068
:1002B20002689202B51C005034C0E07F203003195E
:1002C2007F30A20272067205500F1202EFC202C202
:1002D20006C205C2087F30800F300503E9C0E01274
:1002E200003E300503D0E0F9D0E0B51CCC30051754
:1002F2007F30B9100C12003E7F583004077F78809F
:1003020003B9080312003E3002057F2D02003E7F32
:10031200202008F87F2B2006F322920280CF286E3D
:10032200756C6C2900D2011200033001F8C2017809
:100332001C30D50108F60200A92D5043495812007D
:10034200032403B405004001E490033B9312002F01
:0D035200743A12002FD203751C0402018EB4
:1003F900020479E493A3F8E493A34003F68001F29D
:1004090008DFF48029E493A3F85407240CC8C33304
:10041900C4540F4420C8834004F456800146F6DFD3
:10042900E4800B01020408102040809005DBE47E83
:10043900019360BCA3FF543F30E509541FFEE493C8
:10044900A360010ECF54C025E060A840B8E493A38F
:10045900FAE493A3F8E493A3C8C582C8CAC583CABA
:10046900F0A3C8C582C8CAC583CADFE9DEE780BE72
:0105E5000015
:10035F00BB010689828A83E0225002E722BBFE029C
:09036F00E32289828A83E49322CF
:10037800BB010CE58229F582E5833AF583E022503A
:1003880006E92582F8E622BBFE06E92582F8E22284
:0D039800E58229F582E5833AF583E493229E
:1003A500BB010689828A83F0225002F722BBFE0137
:0203B500F32231
:1003B700FAE6FB0808E6F925F0F618E6CA3AF62247
:1003C700D083D082F8E4937012740193700DA3A3C5
:1003D70093F8740193F5828883E4737402936860D9
:0603E700EFA3A3A380DFD9
:1004CF00EFB40A07740D1204DA740A309811A89960
:1004DF00B8130CC2983098FDA899C298B811F6308D
:0704EF0099FDC299F5992265
:00000001FF
